{
  "contractName": "ETHUSDAggregator",
  "abi": [
    {
      "inputs": [],
      "name": "latestAnswer",
      "outputs": [
        {
          "internalType": "int256",
          "name": "",
          "type": "int256"
        }
      ],
      "stateMutability": "view",
      "type": "function"
    },
    {
      "inputs": [],
      "name": "latestRoundData",
      "outputs": [
        {
          "internalType": "uint80",
          "name": "roundId",
          "type": "uint80"
        },
        {
          "internalType": "int256",
          "name": "answer",
          "type": "int256"
        },
        {
          "internalType": "uint256",
          "name": "startedAt",
          "type": "uint256"
        },
        {
          "internalType": "uint256",
          "name": "updatedAt",
          "type": "uint256"
        },
        {
          "internalType": "uint80",
          "name": "answeredInRound",
          "type": "uint80"
        }
      ],
      "stateMutability": "view",
      "type": "function"
    }
  ],
  "bytecode": "0x6080604052643a609d653960005534801561001957600080fd5b506101a1806100296000396000f3fe608060405234801561001057600080fd5b50600436106100365760003560e01c806350d25bcd1461003b578063feaf968c14610059575b600080fd5b61004361007b565b60405161005091906100d3565b60405180910390f35b610061610084565b6040516100729594939291906100ee565b60405180910390f35b60008054905090565b6000806000806000806000546000806000945094509450945094509091929394565b6100af81610141565b82525050565b6100be8161014b565b82525050565b6100cd81610155565b82525050565b60006020820190506100e860008301846100a6565b92915050565b600060a08201905061010360008301886100c4565b61011060208301876100a6565b61011d60408301866100b5565b61012a60608301856100b5565b61013760808301846100c4565b9695505050505050565b6000819050919050565b6000819050919050565b600069ffffffffffffffffffff8216905091905056fea264697066735822122086103b6bf3b7cf117b6283d024eb14dec376353fdceba056b3655f3623aa7ac864736f6c63430008000033",
  "immutableReferences": {},
  "source": "// SPDX-License-Identifier: UNLICENSED\n\npragma solidity 0.8.0;\n\ncontract ETHUSDAggregator {\n    int256 temp = 250729030969;\n\n    function latestAnswer() external view returns (int256) {\n        return temp;\n    }\n\n    function latestRoundData()\n        external\n        view\n    returns (\n        uint80 roundId,\n        int256 answer,\n        uint256 startedAt,\n        uint256 updatedAt,\n        uint80 answeredInRound\n    )\n    {\n        return (\n            0,\n            temp,\n            0,\n            0,\n            0\n        );\n    }\n}\n",
  "sourcePath": "/Users/lovelytinker/Downloads/nft-shrug-master/contracts/fake/ETHUSDAggregator.sol",
  "compiler": {
    "name": "solc",
    "version": "0.8.0+commit.c7dfd78e.Emscripten.clang"
  },
  "schemaVersion": "3.4.3",
  "updatedAt": "2021-10-01T05:49:19.272Z",
  "devdoc": {
    "kind": "dev",
    "methods": {},
    "version": 1
  },
  "userdoc": {
    "kind": "user",
    "methods": {},
    "version": 1
  }
}