{
  "contractName": "Exponential",
  "abi": [
    {
      "anonymous": false,
      "inputs": [
        {
          "indexed": true,
          "internalType": "address",
          "name": "previousOwner",
          "type": "address"
        },
        {
          "indexed": true,
          "internalType": "address",
          "name": "newOwner",
          "type": "address"
        }
      ],
      "name": "OwnershipTransferred",
      "type": "event"
    },
    {
      "inputs": [],
      "name": "ETHUSDAggregator",
      "outputs": [
        {
          "internalType": "contract IAggregator",
          "name": "",
          "type": "address"
        }
      ],
      "stateMutability": "view",
      "type": "function"
    },
    {
      "inputs": [],
      "name": "STMXUSDAggregator",
      "outputs": [
        {
          "internalType": "contract IAggregator",
          "name": "",
          "type": "address"
        }
      ],
      "stateMutability": "view",
      "type": "function"
    },
    {
      "inputs": [],
      "name": "USDTUSDAggregator",
      "outputs": [
        {
          "internalType": "contract IAggregator",
          "name": "",
          "type": "address"
        }
      ],
      "stateMutability": "view",
      "type": "function"
    },
    {
      "inputs": [],
      "name": "decimals",
      "outputs": [
        {
          "internalType": "uint256",
          "name": "",
          "type": "uint256"
        }
      ],
      "stateMutability": "view",
      "type": "function"
    },
    {
      "inputs": [],
      "name": "owner",
      "outputs": [
        {
          "internalType": "address",
          "name": "",
          "type": "address"
        }
      ],
      "stateMutability": "view",
      "type": "function"
    },
    {
      "inputs": [],
      "name": "renounceOwnership",
      "outputs": [],
      "stateMutability": "nonpayable",
      "type": "function"
    },
    {
      "inputs": [
        {
          "internalType": "address",
          "name": "newOwner",
          "type": "address"
        }
      ],
      "name": "transferOwnership",
      "outputs": [],
      "stateMutability": "nonpayable",
      "type": "function"
    },
    {
      "inputs": [
        {
          "internalType": "uint256",
          "name": "totalSupply",
          "type": "uint256"
        },
        {
          "internalType": "uint256",
          "name": "currency",
          "type": "uint256"
        }
      ],
      "name": "calculatePrice",
      "outputs": [
        {
          "internalType": "uint256",
          "name": "",
          "type": "uint256"
        }
      ],
      "stateMutability": "view",
      "type": "function"
    },
    {
      "inputs": [
        {
          "internalType": "address",
          "name": "_addr",
          "type": "address"
        }
      ],
      "name": "setETHUSDAggregatorContract",
      "outputs": [],
      "stateMutability": "nonpayable",
      "type": "function"
    },
    {
      "inputs": [
        {
          "internalType": "address",
          "name": "_addr",
          "type": "address"
        }
      ],
      "name": "setUSDTUSDAggregatorContract",
      "outputs": [],
      "stateMutability": "nonpayable",
      "type": "function"
    },
    {
      "inputs": [
        {
          "internalType": "address",
          "name": "_addr",
          "type": "address"
        }
      ],
      "name": "setSTMXUSDAggregatorContract",
      "outputs": [],
      "stateMutability": "nonpayable",
      "type": "function"
    }
  ],
  "bytecode": "0x608060405234801561001057600080fd5b5061002d61002261003260201b60201c565b61003a60201b60201c565b6100fe565b600033905090565b60008060009054906101000a900473ffffffffffffffffffffffffffffffffffffffff169050816000806101000a81548173ffffffffffffffffffffffffffffffffffffffff021916908373ffffffffffffffffffffffffffffffffffffffff1602179055508173ffffffffffffffffffffffffffffffffffffffff168173ffffffffffffffffffffffffffffffffffffffff167f8be0079c531659141344cd1fd0a4f28419497f9722a3daafe3b4186f6b6457e060405160405180910390a35050565b6111918061010d6000396000f3fe608060405234801561001057600080fd5b50600436106100a95760003560e01c806388a60c651161007157806388a60c651461012c5780638da5cb5b146101485780638fa915d414610166578063a6413a2714610184578063edd77336146101b4578063f2fde38b146101d2576100a9565b8063109ec030146100ae5780631652164e146100ca578063313ce567146100e65780636fd312f914610104578063715018a614610122575b600080fd5b6100c860048036038101906100c39190610b64565b6101ee565b005b6100e460048036038101906100df9190610b64565b6102ae565b005b6100ee61036e565b6040516100fb9190610d89565b60405180910390f35b61010c61037a565b6040516101199190610d2e565b60405180910390f35b61012a6103a0565b005b61014660048036038101906101419190610b64565b610428565b005b6101506104e8565b60405161015d9190610d13565b60405180910390f35b61016e610511565b60405161017b9190610d2e565b60405180910390f35b61019e60048036038101906101999190610b8d565b610537565b6040516101ab9190610d89565b60405180910390f35b6101bc610911565b6040516101c99190610d2e565b60405180910390f35b6101ec60048036038101906101e79190610b64565b610937565b005b6101f6610a2f565b73ffffffffffffffffffffffffffffffffffffffff166102146104e8565b73ffffffffffffffffffffffffffffffffffffffff161461026a576040517f08c379a000000000000000000000000000000000000000000000000000000000815260040161026190610d69565b60405180910390fd5b80600260006101000a81548173ffffffffffffffffffffffffffffffffffffffff021916908373ffffffffffffffffffffffffffffffffffffffff16021790555050565b6102b6610a2f565b73ffffffffffffffffffffffffffffffffffffffff166102d46104e8565b73ffffffffffffffffffffffffffffffffffffffff161461032a576040517f08c379a000000000000000000000000000000000000000000000000000000000815260040161032190610d69565b60405180910390fd5b80600360006101000a81548173ffffffffffffffffffffffffffffffffffffffff021916908373ffffffffffffffffffffffffffffffffffffffff16021790555050565b670de0b6b3a764000081565b600160009054906101000a900473ffffffffffffffffffffffffffffffffffffffff1681565b6103a8610a2f565b73ffffffffffffffffffffffffffffffffffffffff166103c66104e8565b73ffffffffffffffffffffffffffffffffffffffff161461041c576040517f08c379a000000000000000000000000000000000000000000000000000000000815260040161041390610d69565b60405180910390fd5b6104266000610a37565b565b610430610a2f565b73ffffffffffffffffffffffffffffffffffffffff1661044e6104e8565b73ffffffffffffffffffffffffffffffffffffffff16146104a4576040517f08c379a000000000000000000000000000000000000000000000000000000000815260040161049b90610d69565b60405180910390fd5b80600160006101000a81548173ffffffffffffffffffffffffffffffffffffffff021916908373ffffffffffffffffffffffffffffffffffffffff16021790555050565b60008060009054906101000a900473ffffffffffffffffffffffffffffffffffffffff16905090565b600260009054906101000a900473ffffffffffffffffffffffffffffffffffffffff1681565b6000808214156105c55760646002670de0b6b3a76400006105589190610fad565b6105629190610e0b565b6d04ee2d6d415b85acef8100000000600b6001866105809190610db5565b61058a9190610e8f565b614ffd670de0b6b3a76400006105a09190610fad565b6105aa9190610fad565b6105b49190610e0b565b6105be9190610db5565b905061090b565b6000600160009054906101000a900473ffffffffffffffffffffffffffffffffffffffff1673ffffffffffffffffffffffffffffffffffffffff1663feaf968c6040518163ffffffff1660e01b815260040160a06040518083038186803b15801561062f57600080fd5b505afa158015610643573d6000803e3d6000fd5b505050506040513d601f19601f820116820180604052508101906106679190610bc9565b5050509150506000600260009054906101000a900473ffffffffffffffffffffffffffffffffffffffff1673ffffffffffffffffffffffffffffffffffffffff1663feaf968c6040518163ffffffff1660e01b815260040160a06040518083038186803b1580156106d757600080fd5b505afa1580156106eb573d6000803e3d6000fd5b505050506040513d601f19601f8201168201806040525081019061070f9190610bc9565b50505091505060018414156107ca5764e8d4a51000818360646002670de0b6b3a764000061073d9190610fad565b6107479190610e0b565b6d04ee2d6d415b85acef8100000000600b60018b6107659190610db5565b61076f9190610e8f565b614ffd670de0b6b3a76400006107859190610fad565b61078f9190610fad565b6107999190610e0b565b6107a39190610db5565b6107ad9190610fad565b6107b79190610e0b565b6107c19190610e0b565b9250505061090b565b6000600360009054906101000a900473ffffffffffffffffffffffffffffffffffffffff1673ffffffffffffffffffffffffffffffffffffffff1663feaf968c6040518163ffffffff1660e01b815260040160a06040518083038186803b15801561083457600080fd5b505afa158015610848573d6000803e3d6000fd5b505050506040513d601f19601f8201168201806040525081019061086c9190610bc9565b505050915050808360646002670de0b6b3a764000061088b9190610fad565b6108959190610e0b565b6d04ee2d6d415b85acef8100000000600b60018b6108b39190610db5565b6108bd9190610e8f565b614ffd670de0b6b3a76400006108d39190610fad565b6108dd9190610fad565b6108e79190610e0b565b6108f19190610db5565b6108fb9190610fad565b6109059190610e0b565b93505050505b92915050565b600360009054906101000a900473ffffffffffffffffffffffffffffffffffffffff1681565b61093f610a2f565b73ffffffffffffffffffffffffffffffffffffffff1661095d6104e8565b73ffffffffffffffffffffffffffffffffffffffff16146109b3576040517f08c379a00000000000000000000000000000000000000000000000000000000081526004016109aa90610d69565b60405180910390fd5b600073ffffffffffffffffffffffffffffffffffffffff168173ffffffffffffffffffffffffffffffffffffffff161415610a23576040517f08c379a0000000000000000000000000000000000000000000000000000000008152600401610a1a90610d49565b60405180910390fd5b610a2c81610a37565b50565b600033905090565b60008060009054906101000a900473ffffffffffffffffffffffffffffffffffffffff169050816000806101000a81548173ffffffffffffffffffffffffffffffffffffffff021916908373ffffffffffffffffffffffffffffffffffffffff1602179055508173ffffffffffffffffffffffffffffffffffffffff168173ffffffffffffffffffffffffffffffffffffffff167f8be0079c531659141344cd1fd0a4f28419497f9722a3daafe3b4186f6b6457e060405160405180910390a35050565b600081359050610b0a816110ff565b92915050565b600081519050610b1f81611116565b92915050565b600081359050610b348161112d565b92915050565b600081519050610b498161112d565b92915050565b600081519050610b5e81611144565b92915050565b600060208284031215610b7657600080fd5b6000610b8484828501610afb565b91505092915050565b60008060408385031215610ba057600080fd5b6000610bae85828601610b25565b9250506020610bbf85828601610b25565b9150509250929050565b600080600080600060a08688031215610be157600080fd5b6000610bef88828901610b4f565b9550506020610c0088828901610b10565b9450506040610c1188828901610b3a565b9350506060610c2288828901610b3a565b9250506080610c3388828901610b4f565b9150509295509295909350565b610c4981611007565b82525050565b610c5881611070565b82525050565b6000610c6b602683610da4565b91507f4f776e61626c653a206e6577206f776e657220697320746865207a65726f206160008301527f64647265737300000000000000000000000000000000000000000000000000006020830152604082019050919050565b6000610cd1602083610da4565b91507f4f776e61626c653a2063616c6c6572206973206e6f7420746865206f776e65726000830152602082019050919050565b610d0d81611043565b82525050565b6000602082019050610d286000830184610c40565b92915050565b6000602082019050610d436000830184610c4f565b92915050565b60006020820190508181036000830152610d6281610c5e565b9050919050565b60006020820190508181036000830152610d8281610cc4565b9050919050565b6000602082019050610d9e6000830184610d04565b92915050565b600082825260208201905092915050565b6000610dc082611043565b9150610dcb83611043565b9250827fffffffffffffffffffffffffffffffffffffffffffffffffffffffffffffffff03821115610e0057610dff611094565b5b828201905092915050565b6000610e1682611043565b9150610e2183611043565b925082610e3157610e306110c3565b5b828204905092915050565b6000808291508390505b6001851115610e8657808604811115610e6257610e61611094565b5b6001851615610e715780820291505b8081029050610e7f856110f2565b9450610e46565b94509492505050565b6000610e9a82611043565b9150610ea58361104d565b9250610ed27fffffffffffffffffffffffffffffffffffffffffffffffffffffffffffffffff8484610eda565b905092915050565b600082610eea5760019050610fa6565b81610ef85760009050610fa6565b8160018114610f0e5760028114610f1857610f47565b6001915050610fa6565b60ff841115610f2a57610f29611094565b5b8360020a915084821115610f4157610f40611094565b5b50610fa6565b5060208310610133831016604e8410600b8410161715610f7c5782820a905083811115610f7757610f76611094565b5b610fa6565b610f898484846001610e3c565b92509050818404811115610fa057610f9f611094565b5b81810290505b9392505050565b6000610fb882611043565b9150610fc383611043565b9250817fffffffffffffffffffffffffffffffffffffffffffffffffffffffffffffffff0483118215151615610ffc57610ffb611094565b5b828202905092915050565b600061101282611023565b9050919050565b6000819050919050565b600073ffffffffffffffffffffffffffffffffffffffff82169050919050565b6000819050919050565b600060ff82169050919050565b600069ffffffffffffffffffff82169050919050565b600061107b82611082565b9050919050565b600061108d82611023565b9050919050565b7f4e487b7100000000000000000000000000000000000000000000000000000000600052601160045260246000fd5b7f4e487b7100000000000000000000000000000000000000000000000000000000600052601260045260246000fd5b60008160011c9050919050565b61110881611007565b811461111357600080fd5b50565b61111f81611019565b811461112a57600080fd5b50565b61113681611043565b811461114157600080fd5b50565b61114d8161105a565b811461115857600080fd5b5056fea26469706673582212200aaa9e3d6915de1192dec90b72a7d873ff914c93698ebca70d9e583aff238c7f64736f6c63430008000033",
  "immutableReferences": {},
  "source": "// SPDX-License-Identifier: UNLICENSED\npragma solidity 0.8.0;\n\nimport \"../interfaces/IAggregator.sol\";\nimport \"@openzeppelin/contracts/access/Ownable.sol\";\n\ncontract Exponential is Ownable {\n    uint256 constant public decimals = 10**18;\n\n    IAggregator public ETHUSDAggregator;\n    IAggregator public USDTUSDAggregator;\n    IAggregator public STMXUSDAggregator;\n\n    function calculatePrice(\n        uint256 totalSupply,\n        uint256 currency\n    )   public\n        view\n        returns (uint256)\n    {\n        if(currency == 0)\n            return  decimals * 20477 * (totalSupply + 1) ** 11 / 10 ** 32 + decimals * 2 / 100;\n\n        (,int256 resETH,,,) = ETHUSDAggregator.latestRoundData();\n        (,int256 resUSDT,,,) = USDTUSDAggregator.latestRoundData();\n        if(currency == 1)\n            return (decimals * 20477 * (totalSupply + 1) ** 11 / 10 ** 32 + decimals * 2 / 100) * uint256(resETH) / uint256(resUSDT) / 10 ** 12;\n\n        (,int256 resSTMX,,,) = STMXUSDAggregator.latestRoundData();\n        \n        return (decimals * 20477 * (totalSupply + 1) ** 11 / 10 ** 32 + decimals * 2 / 100) * uint256(resETH) / uint256(resSTMX);\n    }\n\n    /**\n     * @dev Owner can set ETH / USD Aggregator contract\n     * @param _addr Address of aggregator contract\n     */\n    function setETHUSDAggregatorContract(address _addr) public onlyOwner {\n        ETHUSDAggregator = IAggregator(address(_addr));\n    }\n\n    /**\n     * @dev Owner can set USDT / USD Aggregator contract\n     * @param _addr Address of aggregator contract\n     */\n    function setUSDTUSDAggregatorContract(address _addr) public onlyOwner {\n        USDTUSDAggregator = IAggregator(address(_addr));\n    }\n\n    /**\n     * @dev Owner can set STMX / USD Aggregator contract\n     * @param _addr Address of aggregator contract\n     */\n    function setSTMXUSDAggregatorContract(address _addr) public onlyOwner {\n        STMXUSDAggregator = IAggregator(address(_addr));\n    }\n}",
  "sourcePath": "/Users/lovelytinker/Downloads/nft-shrug-master/contracts/curves/Exponential.sol",
  "compiler": {
    "name": "solc",
    "version": "0.8.0+commit.c7dfd78e.Emscripten.clang"
  },
  "schemaVersion": "3.4.3",
  "updatedAt": "2021-10-01T05:49:19.268Z",
  "devdoc": {
    "kind": "dev",
    "methods": {
      "owner()": {
        "details": "Returns the address of the current owner."
      },
      "renounceOwnership()": {
        "details": "Leaves the contract without owner. It will not be possible to call `onlyOwner` functions anymore. Can only be called by the current owner. NOTE: Renouncing ownership will leave the contract without an owner, thereby removing any functionality that is only available to the owner."
      },
      "setETHUSDAggregatorContract(address)": {
        "details": "Owner can set ETH / USD Aggregator contract",
        "params": {
          "_addr": "Address of aggregator contract"
        }
      },
      "setSTMXUSDAggregatorContract(address)": {
        "details": "Owner can set STMX / USD Aggregator contract",
        "params": {
          "_addr": "Address of aggregator contract"
        }
      },
      "setUSDTUSDAggregatorContract(address)": {
        "details": "Owner can set USDT / USD Aggregator contract",
        "params": {
          "_addr": "Address of aggregator contract"
        }
      },
      "transferOwnership(address)": {
        "details": "Transfers ownership of the contract to a new account (`newOwner`). Can only be called by the current owner."
      }
    },
    "version": 1
  },
  "userdoc": {
    "kind": "user",
    "methods": {},
    "version": 1
  }
}