{
  "contractName": "MinterRole",
  "abi": [
    {
      "inputs": [],
      "stateMutability": "nonpayable",
      "type": "constructor"
    },
    {
      "anonymous": false,
      "inputs": [
        {
          "indexed": true,
          "internalType": "bytes32",
          "name": "role",
          "type": "bytes32"
        },
        {
          "indexed": true,
          "internalType": "bytes32",
          "name": "previousAdminRole",
          "type": "bytes32"
        },
        {
          "indexed": true,
          "internalType": "bytes32",
          "name": "newAdminRole",
          "type": "bytes32"
        }
      ],
      "name": "RoleAdminChanged",
      "type": "event"
    },
    {
      "anonymous": false,
      "inputs": [
        {
          "indexed": true,
          "internalType": "bytes32",
          "name": "role",
          "type": "bytes32"
        },
        {
          "indexed": true,
          "internalType": "address",
          "name": "account",
          "type": "address"
        },
        {
          "indexed": true,
          "internalType": "address",
          "name": "sender",
          "type": "address"
        }
      ],
      "name": "RoleGranted",
      "type": "event"
    },
    {
      "anonymous": false,
      "inputs": [
        {
          "indexed": true,
          "internalType": "bytes32",
          "name": "role",
          "type": "bytes32"
        },
        {
          "indexed": true,
          "internalType": "address",
          "name": "account",
          "type": "address"
        },
        {
          "indexed": true,
          "internalType": "address",
          "name": "sender",
          "type": "address"
        }
      ],
      "name": "RoleRevoked",
      "type": "event"
    },
    {
      "inputs": [],
      "name": "DEFAULT_ADMIN_ROLE",
      "outputs": [
        {
          "internalType": "bytes32",
          "name": "",
          "type": "bytes32"
        }
      ],
      "stateMutability": "view",
      "type": "function"
    },
    {
      "inputs": [],
      "name": "MINTER_ROLE",
      "outputs": [
        {
          "internalType": "bytes32",
          "name": "",
          "type": "bytes32"
        }
      ],
      "stateMutability": "view",
      "type": "function"
    },
    {
      "inputs": [
        {
          "internalType": "bytes32",
          "name": "role",
          "type": "bytes32"
        }
      ],
      "name": "getRoleAdmin",
      "outputs": [
        {
          "internalType": "bytes32",
          "name": "",
          "type": "bytes32"
        }
      ],
      "stateMutability": "view",
      "type": "function"
    },
    {
      "inputs": [
        {
          "internalType": "bytes32",
          "name": "role",
          "type": "bytes32"
        },
        {
          "internalType": "address",
          "name": "account",
          "type": "address"
        }
      ],
      "name": "grantRole",
      "outputs": [],
      "stateMutability": "nonpayable",
      "type": "function"
    },
    {
      "inputs": [
        {
          "internalType": "bytes32",
          "name": "role",
          "type": "bytes32"
        },
        {
          "internalType": "address",
          "name": "account",
          "type": "address"
        }
      ],
      "name": "hasRole",
      "outputs": [
        {
          "internalType": "bool",
          "name": "",
          "type": "bool"
        }
      ],
      "stateMutability": "view",
      "type": "function"
    },
    {
      "inputs": [
        {
          "internalType": "bytes32",
          "name": "role",
          "type": "bytes32"
        },
        {
          "internalType": "address",
          "name": "account",
          "type": "address"
        }
      ],
      "name": "renounceRole",
      "outputs": [],
      "stateMutability": "nonpayable",
      "type": "function"
    },
    {
      "inputs": [
        {
          "internalType": "bytes32",
          "name": "role",
          "type": "bytes32"
        },
        {
          "internalType": "address",
          "name": "account",
          "type": "address"
        }
      ],
      "name": "revokeRole",
      "outputs": [],
      "stateMutability": "nonpayable",
      "type": "function"
    },
    {
      "inputs": [
        {
          "internalType": "address",
          "name": "_account",
          "type": "address"
        }
      ],
      "name": "addMinter",
      "outputs": [],
      "stateMutability": "nonpayable",
      "type": "function"
    },
    {
      "inputs": [
        {
          "internalType": "address",
          "name": "_account",
          "type": "address"
        }
      ],
      "name": "removeMinter",
      "outputs": [],
      "stateMutability": "nonpayable",
      "type": "function"
    },
    {
      "inputs": [
        {
          "internalType": "address",
          "name": "_account",
          "type": "address"
        }
      ],
      "name": "addAdmin",
      "outputs": [],
      "stateMutability": "nonpayable",
      "type": "function"
    },
    {
      "inputs": [
        {
          "internalType": "address",
          "name": "_account",
          "type": "address"
        }
      ],
      "name": "removeAdmin",
      "outputs": [],
      "stateMutability": "nonpayable",
      "type": "function"
    }
  ],
  "bytecode": "0x608060405234801561001057600080fd5b506100316000801b61002661003660201b60201c565b61003e60201b60201c565b6101a8565b600033905090565b61004e828261005260201b60201c565b5050565b610062828261013e60201b60201c565b61013a57600160008084815260200190815260200160002060000160008373ffffffffffffffffffffffffffffffffffffffff1673ffffffffffffffffffffffffffffffffffffffff16815260200190815260200160002060006101000a81548160ff0219169083151502179055506100df61003660201b60201c565b73ffffffffffffffffffffffffffffffffffffffff168173ffffffffffffffffffffffffffffffffffffffff16837f2f8788117e7eff1d82e926ec794901d17c78024a50270940304540a733656f0d60405160405180910390a45b5050565b600080600084815260200190815260200160002060000160008373ffffffffffffffffffffffffffffffffffffffff1673ffffffffffffffffffffffffffffffffffffffff16815260200190815260200160002060009054906101000a900460ff16905092915050565b611093806101b76000396000f3fe608060405234801561001057600080fd5b50600436106100a95760003560e01c80637048027511610071578063704802751461014e57806391d148541461016a578063983b2d561461019a578063a217fddf146101b6578063d5391393146101d4578063d547741f146101f2576100a9565b80631785f53c146100ae578063248a9ca3146100ca5780632f2ff15d146100fa5780633092afd51461011657806336568abe14610132575b600080fd5b6100c860048036038101906100c39190610afb565b61020e565b005b6100e460048036038101906100df9190610b24565b61026d565b6040516100f19190610dcc565b60405180910390f35b610114600480360381019061010f9190610b4d565b61028c565b005b610130600480360381019061012b9190610afb565b6102b5565b005b61014c60048036038101906101479190610b4d565b610331565b005b61016860048036038101906101639190610afb565b6103b4565b005b610184600480360381019061017f9190610b4d565b610413565b6040516101919190610db1565b60405180910390f35b6101b460048036038101906101af9190610afb565b61047d565b005b6101be6104f9565b6040516101cb9190610dcc565b60405180910390f35b6101dc610500565b6040516101e99190610dcc565b60405180910390f35b61020c60048036038101906102079190610b4d565b610524565b005b61021e61021961054d565b610555565b61025d576040517f08c379a000000000000000000000000000000000000000000000000000000000815260040161025490610e29565b60405180910390fd5b61026a6000801b82610524565b50565b6000806000838152602001908152602001600020600101549050919050565b6102958261026d565b6102a6816102a161054d565b61056b565b6102b08383610608565b505050565b6102c56102c061054d565b610555565b610304576040517f08c379a00000000000000000000000000000000000000000000000000000000081526004016102fb90610e29565b60405180910390fd5b61032e7f9f2df0fed2c77648de5860a4cc508cd0818c85b8b8a1ab4ceeef8d981c8956a682610524565b50565b61033961054d565b73ffffffffffffffffffffffffffffffffffffffff168173ffffffffffffffffffffffffffffffffffffffff16146103a6576040517f08c379a000000000000000000000000000000000000000000000000000000000815260040161039d90610e49565b60405180910390fd5b6103b082826106e8565b5050565b6103c46103bf61054d565b610555565b610403576040517f08c379a00000000000000000000000000000000000000000000000000000000081526004016103fa90610e29565b60405180910390fd5b6104106000801b826107c9565b50565b600080600084815260200190815260200160002060000160008373ffffffffffffffffffffffffffffffffffffffff1673ffffffffffffffffffffffffffffffffffffffff16815260200190815260200160002060009054906101000a900460ff16905092915050565b61048d61048861054d565b610555565b6104cc576040517f08c379a00000000000000000000000000000000000000000000000000000000081526004016104c390610e29565b60405180910390fd5b6104f67f9f2df0fed2c77648de5860a4cc508cd0818c85b8b8a1ab4ceeef8d981c8956a6826107c9565b50565b6000801b81565b7f9f2df0fed2c77648de5860a4cc508cd0818c85b8b8a1ab4ceeef8d981c8956a681565b61052d8261026d565b61053e8161053961054d565b61056b565b61054883836106e8565b505050565b600033905090565b60006105646000801b83610413565b9050919050565b6105758282610413565b6106045761059a8173ffffffffffffffffffffffffffffffffffffffff1660146107d7565b6105a88360001c60206107d7565b6040516020016105b9929190610d77565b6040516020818303038152906040526040517f08c379a00000000000000000000000000000000000000000000000000000000081526004016105fb9190610de7565b60405180910390fd5b5050565b6106128282610413565b6106e457600160008084815260200190815260200160002060000160008373ffffffffffffffffffffffffffffffffffffffff1673ffffffffffffffffffffffffffffffffffffffff16815260200190815260200160002060006101000a81548160ff02191690831515021790555061068961054d565b73ffffffffffffffffffffffffffffffffffffffff168173ffffffffffffffffffffffffffffffffffffffff16837f2f8788117e7eff1d82e926ec794901d17c78024a50270940304540a733656f0d60405160405180910390a45b5050565b6106f28282610413565b156107c557600080600084815260200190815260200160002060000160008373ffffffffffffffffffffffffffffffffffffffff1673ffffffffffffffffffffffffffffffffffffffff16815260200190815260200160002060006101000a81548160ff02191690831515021790555061076a61054d565b73ffffffffffffffffffffffffffffffffffffffff168173ffffffffffffffffffffffffffffffffffffffff16837ff6391f5c32d9c69d2a47ea670b442974b53935d1edc7fd64eb21e047a839171b60405160405180910390a45b5050565b6107d38282610608565b5050565b6060600060028360026107ea9190610ee6565b6107f49190610e90565b67ffffffffffffffff811115610833577f4e487b7100000000000000000000000000000000000000000000000000000000600052604160045260246000fd5b6040519080825280601f01601f1916602001820160405280156108655781602001600182028036833780820191505090505b5090507f3000000000000000000000000000000000000000000000000000000000000000816000815181106108c3577f4e487b7100000000000000000000000000000000000000000000000000000000600052603260045260246000fd5b60200101907effffffffffffffffffffffffffffffffffffffffffffffffffffffffffffff1916908160001a9053507f78000000000000000000000000000000000000000000000000000000000000008160018151811061094d577f4e487b7100000000000000000000000000000000000000000000000000000000600052603260045260246000fd5b60200101907effffffffffffffffffffffffffffffffffffffffffffffffffffffffffffff1916908160001a9053506000600184600261098d9190610ee6565b6109979190610e90565b90505b6001811115610a83577f3031323334353637383961626364656600000000000000000000000000000000600f8616601081106109ff577f4e487b7100000000000000000000000000000000000000000000000000000000600052603260045260246000fd5b1a60f81b828281518110610a3c577f4e487b7100000000000000000000000000000000000000000000000000000000600052603260045260246000fd5b60200101907effffffffffffffffffffffffffffffffffffffffffffffffffffffffffffff1916908160001a905350600485901c945080610a7c90610fc5565b905061099a565b5060008414610ac7576040517f08c379a0000000000000000000000000000000000000000000000000000000008152600401610abe90610e09565b60405180910390fd5b8091505092915050565b600081359050610ae08161102f565b92915050565b600081359050610af581611046565b92915050565b600060208284031215610b0d57600080fd5b6000610b1b84828501610ad1565b91505092915050565b600060208284031215610b3657600080fd5b6000610b4484828501610ae6565b91505092915050565b60008060408385031215610b6057600080fd5b6000610b6e85828601610ae6565b9250506020610b7f85828601610ad1565b9150509250929050565b610b9281610f52565b82525050565b610ba181610f5e565b82525050565b6000610bb282610e69565b610bbc8185610e74565b9350610bcc818560208601610f92565b610bd58161101e565b840191505092915050565b6000610beb82610e69565b610bf58185610e85565b9350610c05818560208601610f92565b80840191505092915050565b6000610c1e602083610e74565b91507f537472696e67733a20686578206c656e67746820696e73756666696369656e746000830152602082019050919050565b6000610c5e602083610e74565b91507f4f776e61626c653a2063616c6c6572206973206e6f74207468652061646d696e6000830152602082019050919050565b6000610c9e601783610e85565b91507f416363657373436f6e74726f6c3a206163636f756e74200000000000000000006000830152601782019050919050565b6000610cde601183610e85565b91507f206973206d697373696e6720726f6c65200000000000000000000000000000006000830152601182019050919050565b6000610d1e602f83610e74565b91507f416363657373436f6e74726f6c3a2063616e206f6e6c792072656e6f756e636560008301527f20726f6c657320666f722073656c6600000000000000000000000000000000006020830152604082019050919050565b6000610d8282610c91565b9150610d8e8285610be0565b9150610d9982610cd1565b9150610da58284610be0565b91508190509392505050565b6000602082019050610dc66000830184610b89565b92915050565b6000602082019050610de16000830184610b98565b92915050565b60006020820190508181036000830152610e018184610ba7565b905092915050565b60006020820190508181036000830152610e2281610c11565b9050919050565b60006020820190508181036000830152610e4281610c51565b9050919050565b60006020820190508181036000830152610e6281610d11565b9050919050565b600081519050919050565b600082825260208201905092915050565b600081905092915050565b6000610e9b82610f88565b9150610ea683610f88565b9250827fffffffffffffffffffffffffffffffffffffffffffffffffffffffffffffffff03821115610edb57610eda610fef565b5b828201905092915050565b6000610ef182610f88565b9150610efc83610f88565b9250817fffffffffffffffffffffffffffffffffffffffffffffffffffffffffffffffff0483118215151615610f3557610f34610fef565b5b828202905092915050565b6000610f4b82610f68565b9050919050565b60008115159050919050565b6000819050919050565b600073ffffffffffffffffffffffffffffffffffffffff82169050919050565b6000819050919050565b60005b83811015610fb0578082015181840152602081019050610f95565b83811115610fbf576000848401525b50505050565b6000610fd082610f88565b91506000821415610fe457610fe3610fef565b5b600182039050919050565b7f4e487b7100000000000000000000000000000000000000000000000000000000600052601160045260246000fd5b6000601f19601f8301169050919050565b61103881610f40565b811461104357600080fd5b50565b61104f81610f5e565b811461105a57600080fd5b5056fea2646970667358221220a1f3e6d570bffb9e9fe91ac38b9d537677ef31e4605c7cc14dc9b87f28d6647364736f6c63430008000033",
  "immutableReferences": {},
  "source": "// SPDX-License-Identifier: UNLICENSED\npragma solidity 0.8.0;\n\nimport \"../libs/AccessControl.sol\";\n\ncontract MinterRole is AccessControl {\n    \n    bytes32 public constant MINTER_ROLE = keccak256(\"MINTER_ROLE\");\n\n    modifier onlyAdmin() {\n        require(isAdmin(_msgSender()), \"Ownable: caller is not the admin\");\n        _;\n    }\n\n    modifier onlyMinter() {\n        require(isMinter(_msgSender()), \"Ownable: caller is not the minter\");\n        _;\n    }\n\n    constructor() {\n        _setupRole(DEFAULT_ADMIN_ROLE, _msgSender());\n    }\n\n    function addMinter(address _account) public onlyAdmin {\n        _setupRole(MINTER_ROLE, _account);\n    }\n\n    function removeMinter(address _account) public onlyAdmin {\n        revokeRole(MINTER_ROLE, _account);\n    }\n\n    function addAdmin(address _account) public onlyAdmin {\n        _setupRole(DEFAULT_ADMIN_ROLE , _account);\n    }\n\n    function removeAdmin(address _account) public onlyAdmin {\n        revokeRole(DEFAULT_ADMIN_ROLE , _account);\n    }\n\n    function isMinter(address _account) internal virtual view returns(bool) {\n        return hasRole(MINTER_ROLE, _account);\n    }\n\n    function isAdmin(address _account) internal virtual view returns(bool) {\n        return hasRole(DEFAULT_ADMIN_ROLE , _account);\n    }\n}",
  "sourcePath": "/Users/lovelytinker/Downloads/nft-shrug-master/contracts/role/MinterRole.sol",
  "compiler": {
    "name": "solc",
    "version": "0.8.0+commit.c7dfd78e.Emscripten.clang"
  },
  "schemaVersion": "3.4.3",
  "updatedAt": "2021-10-01T05:49:19.284Z",
  "devdoc": {
    "kind": "dev",
    "methods": {},
    "version": 1
  },
  "userdoc": {
    "kind": "user",
    "methods": {},
    "version": 1
  }
}