{
  "contractName": "ShrugSale",
  "abi": [
    {
      "inputs": [
        {
          "internalType": "contract IShrugToken",
          "name": "_token",
          "type": "address"
        }
      ],
      "stateMutability": "nonpayable",
      "type": "constructor"
    },
    {
      "anonymous": false,
      "inputs": [
        {
          "indexed": true,
          "internalType": "address",
          "name": "previousOwner",
          "type": "address"
        },
        {
          "indexed": true,
          "internalType": "address",
          "name": "newOwner",
          "type": "address"
        }
      ],
      "name": "OwnershipTransferred",
      "type": "event"
    },
    {
      "anonymous": false,
      "inputs": [],
      "name": "ShrugSaleDeployed",
      "type": "event"
    },
    {
      "anonymous": false,
      "inputs": [
        {
          "indexed": false,
          "internalType": "address",
          "name": "buyer",
          "type": "address"
        },
        {
          "indexed": false,
          "internalType": "uint256",
          "name": "firstTokenId",
          "type": "uint256"
        },
        {
          "indexed": false,
          "internalType": "uint256",
          "name": "lastTokenId",
          "type": "uint256"
        },
        {
          "indexed": false,
          "internalType": "uint256",
          "name": "value",
          "type": "uint256"
        },
        {
          "indexed": false,
          "internalType": "string",
          "name": "currency",
          "type": "string"
        }
      ],
      "name": "TokenBought",
      "type": "event"
    },
    {
      "anonymous": false,
      "inputs": [
        {
          "indexed": false,
          "internalType": "address[]",
          "name": "recipients",
          "type": "address[]"
        }
      ],
      "name": "UpdatedRecipients",
      "type": "event"
    },
    {
      "inputs": [],
      "name": "ETHUSDAggregator",
      "outputs": [
        {
          "internalType": "contract IAggregator",
          "name": "",
          "type": "address"
        }
      ],
      "stateMutability": "view",
      "type": "function"
    },
    {
      "inputs": [],
      "name": "STMXToken",
      "outputs": [
        {
          "internalType": "contract IERC20",
          "name": "",
          "type": "address"
        }
      ],
      "stateMutability": "view",
      "type": "function"
    },
    {
      "inputs": [],
      "name": "STMXUSDAggregator",
      "outputs": [
        {
          "internalType": "contract IAggregator",
          "name": "",
          "type": "address"
        }
      ],
      "stateMutability": "view",
      "type": "function"
    },
    {
      "inputs": [],
      "name": "USDTToken",
      "outputs": [
        {
          "internalType": "contract IERC20",
          "name": "",
          "type": "address"
        }
      ],
      "stateMutability": "view",
      "type": "function"
    },
    {
      "inputs": [],
      "name": "USDTUSDAggregator",
      "outputs": [
        {
          "internalType": "contract IAggregator",
          "name": "",
          "type": "address"
        }
      ],
      "stateMutability": "view",
      "type": "function"
    },
    {
      "inputs": [
        {
          "internalType": "uint256",
          "name": "totalSupply",
          "type": "uint256"
        },
        {
          "internalType": "uint256",
          "name": "currency",
          "type": "uint256"
        }
      ],
      "name": "calculatePrice",
      "outputs": [
        {
          "internalType": "uint256",
          "name": "",
          "type": "uint256"
        }
      ],
      "stateMutability": "view",
      "type": "function"
    },
    {
      "inputs": [],
      "name": "decimals",
      "outputs": [
        {
          "internalType": "uint256",
          "name": "",
          "type": "uint256"
        }
      ],
      "stateMutability": "view",
      "type": "function"
    },
    {
      "inputs": [],
      "name": "owner",
      "outputs": [
        {
          "internalType": "address",
          "name": "",
          "type": "address"
        }
      ],
      "stateMutability": "view",
      "type": "function"
    },
    {
      "inputs": [
        {
          "internalType": "uint256",
          "name": "",
          "type": "uint256"
        }
      ],
      "name": "recipients",
      "outputs": [
        {
          "internalType": "address",
          "name": "",
          "type": "address"
        }
      ],
      "stateMutability": "view",
      "type": "function"
    },
    {
      "inputs": [],
      "name": "renounceOwnership",
      "outputs": [],
      "stateMutability": "nonpayable",
      "type": "function"
    },
    {
      "inputs": [
        {
          "internalType": "address",
          "name": "_addr",
          "type": "address"
        }
      ],
      "name": "setETHUSDAggregatorContract",
      "outputs": [],
      "stateMutability": "nonpayable",
      "type": "function"
    },
    {
      "inputs": [
        {
          "internalType": "address",
          "name": "_addr",
          "type": "address"
        }
      ],
      "name": "setSTMXUSDAggregatorContract",
      "outputs": [],
      "stateMutability": "nonpayable",
      "type": "function"
    },
    {
      "inputs": [
        {
          "internalType": "address",
          "name": "_addr",
          "type": "address"
        }
      ],
      "name": "setUSDTUSDAggregatorContract",
      "outputs": [],
      "stateMutability": "nonpayable",
      "type": "function"
    },
    {
      "inputs": [],
      "name": "token",
      "outputs": [
        {
          "internalType": "contract IShrugToken",
          "name": "",
          "type": "address"
        }
      ],
      "stateMutability": "view",
      "type": "function"
    },
    {
      "inputs": [
        {
          "internalType": "address",
          "name": "newOwner",
          "type": "address"
        }
      ],
      "name": "transferOwnership",
      "outputs": [],
      "stateMutability": "nonpayable",
      "type": "function"
    },
    {
      "inputs": [
        {
          "internalType": "address[]",
          "name": "_recipients",
          "type": "address[]"
        }
      ],
      "name": "setRecipients",
      "outputs": [],
      "stateMutability": "nonpayable",
      "type": "function"
    },
    {
      "inputs": [
        {
          "internalType": "uint256",
          "name": "_count",
          "type": "uint256"
        }
      ],
      "name": "buyInETH",
      "outputs": [],
      "stateMutability": "payable",
      "type": "function"
    },
    {
      "inputs": [
        {
          "internalType": "uint256",
          "name": "_count",
          "type": "uint256"
        }
      ],
      "name": "buyInUSDT",
      "outputs": [],
      "stateMutability": "nonpayable",
      "type": "function"
    },
    {
      "inputs": [
        {
          "internalType": "uint256",
          "name": "_count",
          "type": "uint256"
        }
      ],
      "name": "buyInSTMX",
      "outputs": [],
      "stateMutability": "nonpayable",
      "type": "function"
    },
    {
      "inputs": [
        {
          "internalType": "uint256",
          "name": "_count",
          "type": "uint256"
        },
        {
          "internalType": "uint256",
          "name": "currency",
          "type": "uint256"
        }
      ],
      "name": "getPrice",
      "outputs": [
        {
          "internalType": "uint256",
          "name": "",
          "type": "uint256"
        }
      ],
      "stateMutability": "view",
      "type": "function"
    },
    {
      "inputs": [
        {
          "internalType": "address",
          "name": "_addr",
          "type": "address"
        }
      ],
      "name": "setUSDTTokenContract",
      "outputs": [],
      "stateMutability": "nonpayable",
      "type": "function"
    },
    {
      "inputs": [
        {
          "internalType": "address",
          "name": "_addr",
          "type": "address"
        }
      ],
      "name": "setSTMXTokenContract",
      "outputs": [],
      "stateMutability": "nonpayable",
      "type": "function"
    }
  ],
  "bytecode": "0x60806040523480156200001157600080fd5b5060405162004316380380620043168339818101604052810190620000379190620001b6565b620000576200004b620000d360201b60201c565b620000db60201b60201c565b600160048190555080600660006101000a81548173ffffffffffffffffffffffffffffffffffffffff021916908373ffffffffffffffffffffffffffffffffffffffff1602179055507f8c0172ff2ecdcd14e607e73ea14a2d92130ba34f223a6712692a9719d1af1b6f60405160405180910390a15062000244565b600033905090565b60008060009054906101000a900473ffffffffffffffffffffffffffffffffffffffff169050816000806101000a81548173ffffffffffffffffffffffffffffffffffffffff021916908373ffffffffffffffffffffffffffffffffffffffff1602179055508173ffffffffffffffffffffffffffffffffffffffff168173ffffffffffffffffffffffffffffffffffffffff167f8be0079c531659141344cd1fd0a4f28419497f9722a3daafe3b4186f6b6457e060405160405180910390a35050565b600081519050620001b0816200022a565b92915050565b600060208284031215620001c957600080fd5b6000620001d9848285016200019f565b91505092915050565b6000620001ef826200020a565b9050919050565b60006200020382620001e2565b9050919050565b600073ffffffffffffffffffffffffffffffffffffffff82169050919050565b6200023581620001f6565b81146200024157600080fd5b50565b6140c280620002546000396000f3fe6080604052600436106101355760003560e01c80638fa915d4116100ab578063ecc6c9421161006f578063ecc6c94214610400578063edd7733614610429578063f057adbb14610454578063f2fde38b14610470578063fc0c546a14610499578063fe074897146104c457610135565b80638fa915d414610307578063a6413a2714610332578063ac4b457a1461036f578063bcc6fc0e1461039a578063d1bc76a1146103c357610135565b80634e7602d3116100fd5780634e7602d31461020b5780635cf4ee91146102345780636fd312f914610271578063715018a61461029c57806388a60c65146102b35780638da5cb5b146102dc57610135565b80630646f6831461013a578063109ec030146101635780631652164e1461018c578063313ce567146101b55780633729c319146101e0575b600080fd5b34801561014657600080fd5b50610161600480360381019061015c9190612ef9565b6104ed565b005b34801561016f57600080fd5b5061018a60048036038101906101859190612ef9565b6105ad565b005b34801561019857600080fd5b506101b360048036038101906101ae9190612ef9565b61066d565b005b3480156101c157600080fd5b506101ca61072d565b6040516101d79190613b02565b60405180910390f35b3480156101ec57600080fd5b506101f5610739565b604051610202919061390c565b60405180910390f35b34801561021757600080fd5b50610232600480360381019061022d9190612f22565b61075f565b005b34801561024057600080fd5b5061025b60048036038101906102569190612fde565b610985565b6040516102689190613b02565b60405180910390f35b34801561027d57600080fd5b50610286610ab9565b60405161029391906138f1565b60405180910390f35b3480156102a857600080fd5b506102b1610adf565b005b3480156102bf57600080fd5b506102da60048036038101906102d59190612ef9565b610b67565b005b3480156102e857600080fd5b506102f1610c27565b6040516102fe919061374c565b60405180910390f35b34801561031357600080fd5b5061031c610c50565b60405161032991906138f1565b60405180910390f35b34801561033e57600080fd5b5061035960048036038101906103549190612fde565b610c76565b6040516103669190613b02565b60405180910390f35b34801561037b57600080fd5b50610384611050565b604051610391919061390c565b60405180910390f35b3480156103a657600080fd5b506103c160048036038101906103bc9190612f8c565b611076565b005b3480156103cf57600080fd5b506103ea60048036038101906103e59190612f8c565b6119aa565b6040516103f7919061374c565b60405180910390f35b34801561040c57600080fd5b5061042760048036038101906104229190612f8c565b6119e9565b005b34801561043557600080fd5b5061043e61231d565b60405161044b91906138f1565b60405180910390f35b61046e60048036038101906104699190612f8c565b612343565b005b34801561047c57600080fd5b5061049760048036038101906104929190612ef9565b612a94565b005b3480156104a557600080fd5b506104ae612b8c565b6040516104bb9190613927565b60405180910390f35b3480156104d057600080fd5b506104eb60048036038101906104e69190612ef9565b612bb2565b005b6104f5612c72565b73ffffffffffffffffffffffffffffffffffffffff16610513610c27565b73ffffffffffffffffffffffffffffffffffffffff1614610569576040517f08c379a000000000000000000000000000000000000000000000000000000000815260040161056090613a42565b60405180910390fd5b80600760006101000a81548173ffffffffffffffffffffffffffffffffffffffff021916908373ffffffffffffffffffffffffffffffffffffffff16021790555050565b6105b5612c72565b73ffffffffffffffffffffffffffffffffffffffff166105d3610c27565b73ffffffffffffffffffffffffffffffffffffffff1614610629576040517f08c379a000000000000000000000000000000000000000000000000000000000815260040161062090613a42565b60405180910390fd5b80600260006101000a81548173ffffffffffffffffffffffffffffffffffffffff021916908373ffffffffffffffffffffffffffffffffffffffff16021790555050565b610675612c72565b73ffffffffffffffffffffffffffffffffffffffff16610693610c27565b73ffffffffffffffffffffffffffffffffffffffff16146106e9576040517f08c379a00000000000000000000000000000000000000000000000000000000081526004016106e090613a42565b60405180910390fd5b80600360006101000a81548173ffffffffffffffffffffffffffffffffffffffff021916908373ffffffffffffffffffffffffffffffffffffffff16021790555050565b670de0b6b3a764000081565b600860009054906101000a900473ffffffffffffffffffffffffffffffffffffffff1681565b610767612c72565b73ffffffffffffffffffffffffffffffffffffffff16610785610c27565b73ffffffffffffffffffffffffffffffffffffffff16146107db576040517f08c379a00000000000000000000000000000000000000000000000000000000081526004016107d290613a42565b60405180910390fd5b600081511161081f576040517f08c379a000000000000000000000000000000000000000000000000000000000815260040161081690613a62565b60405180910390fd5b600281511115610864576040517f08c379a000000000000000000000000000000000000000000000000000000000815260040161085b90613a02565b60405180910390fd5b60005b815181101561093357600073ffffffffffffffffffffffffffffffffffffffff168282815181106108c1577f4e487b7100000000000000000000000000000000000000000000000000000000600052603260045260246000fd5b602002602001015173ffffffffffffffffffffffffffffffffffffffff161415610920576040517f08c379a000000000000000000000000000000000000000000000000000000000815260040161091790613ac2565b60405180910390fd5b808061092b90613f36565b915050610867565b50806005908051906020019061094a929190612d3e565b507f3fb37fb1b34785f9d9ea67668fa9a3e3b7d20adad06ec6247de76f174e01adda8160405161097a91906138cf565b60405180910390a150565b6000606483106109ca576040517f08c379a00000000000000000000000000000000000000000000000000000000081526004016109c190613942565b60405180910390fd5b600080600090505b84811015610aae57610a8e81600660009054906101000a900473ffffffffffffffffffffffffffffffffffffffff1673ffffffffffffffffffffffffffffffffffffffff166318160ddd6040518163ffffffff1660e01b815260040160206040518083038186803b158015610a4657600080fd5b505afa158015610a5a573d6000803e3d6000fd5b505050506040513d601f19601f82011682018060405250810190610a7e9190612fb5565b610a889190613bcf565b85610c76565b82610a999190613bcf565b91508080610aa690613f36565b9150506109d2565b508091505092915050565b600160009054906101000a900473ffffffffffffffffffffffffffffffffffffffff1681565b610ae7612c72565b73ffffffffffffffffffffffffffffffffffffffff16610b05610c27565b73ffffffffffffffffffffffffffffffffffffffff1614610b5b576040517f08c379a0000000000000000000000000000000000000000000000000000000008152600401610b5290613a42565b60405180910390fd5b610b656000612c7a565b565b610b6f612c72565b73ffffffffffffffffffffffffffffffffffffffff16610b8d610c27565b73ffffffffffffffffffffffffffffffffffffffff1614610be3576040517f08c379a0000000000000000000000000000000000000000000000000000000008152600401610bda90613a42565b60405180910390fd5b80600160006101000a81548173ffffffffffffffffffffffffffffffffffffffff021916908373ffffffffffffffffffffffffffffffffffffffff16021790555050565b60008060009054906101000a900473ffffffffffffffffffffffffffffffffffffffff16905090565b600260009054906101000a900473ffffffffffffffffffffffffffffffffffffffff1681565b600080821415610d045760646002670de0b6b3a7640000610c979190613dc7565b610ca19190613c25565b6d04ee2d6d415b85acef8100000000600b600186610cbf9190613bcf565b610cc99190613ca9565b614ffd670de0b6b3a7640000610cdf9190613dc7565b610ce99190613dc7565b610cf39190613c25565b610cfd9190613bcf565b905061104a565b6000600160009054906101000a900473ffffffffffffffffffffffffffffffffffffffff1673ffffffffffffffffffffffffffffffffffffffff1663feaf968c6040518163ffffffff1660e01b815260040160a06040518083038186803b158015610d6e57600080fd5b505afa158015610d82573d6000803e3d6000fd5b505050506040513d601f19601f82011682018060405250810190610da6919061301a565b5050509150506000600260009054906101000a900473ffffffffffffffffffffffffffffffffffffffff1673ffffffffffffffffffffffffffffffffffffffff1663feaf968c6040518163ffffffff1660e01b815260040160a06040518083038186803b158015610e1657600080fd5b505afa158015610e2a573d6000803e3d6000fd5b505050506040513d601f19601f82011682018060405250810190610e4e919061301a565b5050509150506001841415610f095764e8d4a51000818360646002670de0b6b3a7640000610e7c9190613dc7565b610e869190613c25565b6d04ee2d6d415b85acef8100000000600b60018b610ea49190613bcf565b610eae9190613ca9565b614ffd670de0b6b3a7640000610ec49190613dc7565b610ece9190613dc7565b610ed89190613c25565b610ee29190613bcf565b610eec9190613dc7565b610ef69190613c25565b610f009190613c25565b9250505061104a565b6000600360009054906101000a900473ffffffffffffffffffffffffffffffffffffffff1673ffffffffffffffffffffffffffffffffffffffff1663feaf968c6040518163ffffffff1660e01b815260040160a06040518083038186803b158015610f7357600080fd5b505afa158015610f87573d6000803e3d6000fd5b505050506040513d601f19601f82011682018060405250810190610fab919061301a565b505050915050808360646002670de0b6b3a7640000610fca9190613dc7565b610fd49190613c25565b6d04ee2d6d415b85acef8100000000600b60018b610ff29190613bcf565b610ffc9190613ca9565b614ffd670de0b6b3a76400006110129190613dc7565b61101c9190613dc7565b6110269190613c25565b6110309190613bcf565b61103a9190613dc7565b6110449190613c25565b93505050505b92915050565b600760009054906101000a900473ffffffffffffffffffffffffffffffffffffffff1681565b600260045414156110bc576040517f08c379a00000000000000000000000000000000000000000000000000000000081526004016110b390613ae2565b60405180910390fd5b600260048190555060648110611107576040517f08c379a00000000000000000000000000000000000000000000000000000000081526004016110fe90613942565b60405180910390fd5b600660009054906101000a900473ffffffffffffffffffffffffffffffffffffffff1673ffffffffffffffffffffffffffffffffffffffff1663d5abeb016040518163ffffffff1660e01b815260040160206040518083038186803b15801561116f57600080fd5b505afa158015611183573d6000803e3d6000fd5b505050506040513d601f19601f820116820180604052508101906111a79190612fb5565b81600660009054906101000a900473ffffffffffffffffffffffffffffffffffffffff1673ffffffffffffffffffffffffffffffffffffffff166318160ddd6040518163ffffffff1660e01b815260040160206040518083038186803b15801561121057600080fd5b505afa158015611224573d6000803e3d6000fd5b505050506040513d601f19601f820116820180604052508101906112489190612fb5565b6112529190613bcf565b1115611293576040517f08c379a000000000000000000000000000000000000000000000000000000000815260040161128a90613a82565b60405180910390fd5b60006112a0826001610985565b905080600760009054906101000a900473ffffffffffffffffffffffffffffffffffffffff1673ffffffffffffffffffffffffffffffffffffffff166370a08231336040518263ffffffff1660e01b81526004016112fe919061374c565b60206040518083038186803b15801561131657600080fd5b505afa15801561132a573d6000803e3d6000fd5b505050506040513d601f19601f8201168201806040525081019061134e9190612fb5565b101561138f576040517f08c379a0000000000000000000000000000000000000000000000000000000008152600401611386906139a2565b60405180910390fd5b80600760009054906101000a900473ffffffffffffffffffffffffffffffffffffffff1673ffffffffffffffffffffffffffffffffffffffff1663dd62ed3e33306040518363ffffffff1660e01b81526004016113ed929190613767565b60206040518083038186803b15801561140557600080fd5b505afa158015611419573d6000803e3d6000fd5b505050506040513d601f19601f8201168201806040525081019061143d9190612fb5565b101561147e576040517f08c379a0000000000000000000000000000000000000000000000000000000008152600401611475906139e2565b60405180910390fd5b60005b60058054905081101561160b576000600760009054906101000a900473ffffffffffffffffffffffffffffffffffffffff1673ffffffffffffffffffffffffffffffffffffffff166323b872dd3360058581548110611509577f4e487b7100000000000000000000000000000000000000000000000000000000600052603260045260246000fd5b9060005260206000200160009054906101000a900473ffffffffffffffffffffffffffffffffffffffff16600580549050876115459190613c25565b6040518463ffffffff1660e01b815260040161156393929190613790565b602060405180830381600087803b15801561157d57600080fd5b505af1158015611591573d6000803e3d6000fd5b505050506040513d601f19601f820116820180604052508101906115b59190612f63565b9050806115f7576040517f08c379a00000000000000000000000000000000000000000000000000000000081526004016115ee90613aa2565b60405180910390fd5b50808061160390613f36565b915050611481565b5060005b828110156116b757600660009054906101000a900473ffffffffffffffffffffffffffffffffffffffff1673ffffffffffffffffffffffffffffffffffffffff16636a627842336040518263ffffffff1660e01b8152600401611672919061374c565b600060405180830381600087803b15801561168c57600080fd5b505af11580156116a0573d6000803e3d6000fd5b5050505080806116af90613f36565b91505061160f565b507feed831a8fd1e13b093bd9afca138289458732e048518e217e08de24001c2bb8c33600660009054906101000a900473ffffffffffffffffffffffffffffffffffffffff1673ffffffffffffffffffffffffffffffffffffffff166318160ddd6040518163ffffffff1660e01b815260040160206040518083038186803b15801561174257600080fd5b505afa158015611756573d6000803e3d6000fd5b505050506040513d601f19601f8201168201806040525081019061177a9190612fb5565b84600660009054906101000a900473ffffffffffffffffffffffffffffffffffffffff1673ffffffffffffffffffffffffffffffffffffffff1663d5abeb016040518163ffffffff1660e01b815260040160206040518083038186803b1580156117e357600080fd5b505afa1580156117f7573d6000803e3d6000fd5b505050506040513d601f19601f8201168201806040525081019061181b9190612fb5565b6118259190613bcf565b61182f9190613e21565b600660009054906101000a900473ffffffffffffffffffffffffffffffffffffffff1673ffffffffffffffffffffffffffffffffffffffff166318160ddd6040518163ffffffff1660e01b815260040160206040518083038186803b15801561189757600080fd5b505afa1580156118ab573d6000803e3d6000fd5b505050506040513d601f19601f820116820180604052508101906118cf9190612fb5565b6001600660009054906101000a900473ffffffffffffffffffffffffffffffffffffffff1673ffffffffffffffffffffffffffffffffffffffff1663d5abeb016040518163ffffffff1660e01b815260040160206040518083038186803b15801561193957600080fd5b505afa15801561194d573d6000803e3d6000fd5b505050506040513d601f19601f820116820180604052508101906119719190612fb5565b61197b9190613bcf565b6119859190613e21565b84604051611996949392919061381f565b60405180910390a150600160048190555050565b600581815481106119ba57600080fd5b906000526020600020016000915054906101000a900473ffffffffffffffffffffffffffffffffffffffff1681565b60026004541415611a2f576040517f08c379a0000000000000000000000000000000000000000000000000000000008152600401611a2690613ae2565b60405180910390fd5b600260048190555060648110611a7a576040517f08c379a0000000000000000000000000000000000000000000000000000000008152600401611a7190613942565b60405180910390fd5b600660009054906101000a900473ffffffffffffffffffffffffffffffffffffffff1673ffffffffffffffffffffffffffffffffffffffff1663d5abeb016040518163ffffffff1660e01b815260040160206040518083038186803b158015611ae257600080fd5b505afa158015611af6573d6000803e3d6000fd5b505050506040513d601f19601f82011682018060405250810190611b1a9190612fb5565b81600660009054906101000a900473ffffffffffffffffffffffffffffffffffffffff1673ffffffffffffffffffffffffffffffffffffffff166318160ddd6040518163ffffffff1660e01b815260040160206040518083038186803b158015611b8357600080fd5b505afa158015611b97573d6000803e3d6000fd5b505050506040513d601f19601f82011682018060405250810190611bbb9190612fb5565b611bc59190613bcf565b1115611c06576040517f08c379a0000000000000000000000000000000000000000000000000000000008152600401611bfd90613a82565b60405180910390fd5b6000611c13826002610985565b905080600860009054906101000a900473ffffffffffffffffffffffffffffffffffffffff1673ffffffffffffffffffffffffffffffffffffffff166370a08231336040518263ffffffff1660e01b8152600401611c71919061374c565b60206040518083038186803b158015611c8957600080fd5b505afa158015611c9d573d6000803e3d6000fd5b505050506040513d601f19601f82011682018060405250810190611cc19190612fb5565b1015611d02576040517f08c379a0000000000000000000000000000000000000000000000000000000008152600401611cf990613a22565b60405180910390fd5b80600860009054906101000a900473ffffffffffffffffffffffffffffffffffffffff1673ffffffffffffffffffffffffffffffffffffffff1663dd62ed3e33306040518363ffffffff1660e01b8152600401611d60929190613767565b60206040518083038186803b158015611d7857600080fd5b505afa158015611d8c573d6000803e3d6000fd5b505050506040513d601f19601f82011682018060405250810190611db09190612fb5565b1015611df1576040517f08c379a0000000000000000000000000000000000000000000000000000000008152600401611de890613962565b60405180910390fd5b60005b600580549050811015611f7e576000600860009054906101000a900473ffffffffffffffffffffffffffffffffffffffff1673ffffffffffffffffffffffffffffffffffffffff166323b872dd3360058581548110611e7c577f4e487b7100000000000000000000000000000000000000000000000000000000600052603260045260246000fd5b9060005260206000200160009054906101000a900473ffffffffffffffffffffffffffffffffffffffff1660058054905087611eb89190613c25565b6040518463ffffffff1660e01b8152600401611ed693929190613790565b602060405180830381600087803b158015611ef057600080fd5b505af1158015611f04573d6000803e3d6000fd5b505050506040513d601f19601f82011682018060405250810190611f289190612f63565b905080611f6a576040517f08c379a0000000000000000000000000000000000000000000000000000000008152600401611f6190613aa2565b60405180910390fd5b508080611f7690613f36565b915050611df4565b5060005b8281101561202a57600660009054906101000a900473ffffffffffffffffffffffffffffffffffffffff1673ffffffffffffffffffffffffffffffffffffffff16636a627842336040518263ffffffff1660e01b8152600401611fe5919061374c565b600060405180830381600087803b158015611fff57600080fd5b505af1158015612013573d6000803e3d6000fd5b50505050808061202290613f36565b915050611f82565b507feed831a8fd1e13b093bd9afca138289458732e048518e217e08de24001c2bb8c33600660009054906101000a900473ffffffffffffffffffffffffffffffffffffffff1673ffffffffffffffffffffffffffffffffffffffff166318160ddd6040518163ffffffff1660e01b815260040160206040518083038186803b1580156120b557600080fd5b505afa1580156120c9573d6000803e3d6000fd5b505050506040513d601f19601f820116820180604052508101906120ed9190612fb5565b84600660009054906101000a900473ffffffffffffffffffffffffffffffffffffffff1673ffffffffffffffffffffffffffffffffffffffff1663d5abeb016040518163ffffffff1660e01b815260040160206040518083038186803b15801561215657600080fd5b505afa15801561216a573d6000803e3d6000fd5b505050506040513d601f19601f8201168201806040525081019061218e9190612fb5565b6121989190613bcf565b6121a29190613e21565b600660009054906101000a900473ffffffffffffffffffffffffffffffffffffffff1673ffffffffffffffffffffffffffffffffffffffff166318160ddd6040518163ffffffff1660e01b815260040160206040518083038186803b15801561220a57600080fd5b505afa15801561221e573d6000803e3d6000fd5b505050506040513d601f19601f820116820180604052508101906122429190612fb5565b6001600660009054906101000a900473ffffffffffffffffffffffffffffffffffffffff1673ffffffffffffffffffffffffffffffffffffffff1663d5abeb016040518163ffffffff1660e01b815260040160206040518083038186803b1580156122ac57600080fd5b505afa1580156122c0573d6000803e3d6000fd5b505050506040513d601f19601f820116820180604052508101906122e49190612fb5565b6122ee9190613bcf565b6122f89190613e21565b8460405161230994939291906137c7565b60405180910390a150600160048190555050565b600360009054906101000a900473ffffffffffffffffffffffffffffffffffffffff1681565b60026004541415612389576040517f08c379a000000000000000000000000000000000000000000000000000000000815260040161238090613ae2565b60405180910390fd5b6002600481905550606481106123d4576040517f08c379a00000000000000000000000000000000000000000000000000000000081526004016123cb90613942565b60405180910390fd5b600660009054906101000a900473ffffffffffffffffffffffffffffffffffffffff1673ffffffffffffffffffffffffffffffffffffffff1663d5abeb016040518163ffffffff1660e01b815260040160206040518083038186803b15801561243c57600080fd5b505afa158015612450573d6000803e3d6000fd5b505050506040513d601f19601f820116820180604052508101906124749190612fb5565b81600660009054906101000a900473ffffffffffffffffffffffffffffffffffffffff1673ffffffffffffffffffffffffffffffffffffffff166318160ddd6040518163ffffffff1660e01b815260040160206040518083038186803b1580156124dd57600080fd5b505afa1580156124f1573d6000803e3d6000fd5b505050506040513d601f19601f820116820180604052508101906125159190612fb5565b61251f9190613bcf565b1115612560576040517f08c379a000000000000000000000000000000000000000000000000000000000815260040161255790613a82565b60405180910390fd5b600061256d826000610985565b90508034146125b1576040517f08c379a00000000000000000000000000000000000000000000000000000000081526004016125a890613982565b60405180910390fd5b60005b6005805490508110156126f5576000600582815481106125fd577f4e487b7100000000000000000000000000000000000000000000000000000000600052603260045260246000fd5b9060005260206000200160009054906101000a900473ffffffffffffffffffffffffffffffffffffffff1673ffffffffffffffffffffffffffffffffffffffff166005805490508461264f9190613c25565b60405161265b90613737565b60006040518083038185875af1925050503d8060008114612698576040519150601f19603f3d011682016040523d82523d6000602084013e61269d565b606091505b50509050806126e1576040517f08c379a00000000000000000000000000000000000000000000000000000000081526004016126d890613aa2565b60405180910390fd5b5080806126ed90613f36565b9150506125b4565b5060005b828110156127a157600660009054906101000a900473ffffffffffffffffffffffffffffffffffffffff1673ffffffffffffffffffffffffffffffffffffffff16636a627842336040518263ffffffff1660e01b815260040161275c919061374c565b600060405180830381600087803b15801561277657600080fd5b505af115801561278a573d6000803e3d6000fd5b50505050808061279990613f36565b9150506126f9565b507feed831a8fd1e13b093bd9afca138289458732e048518e217e08de24001c2bb8c33600660009054906101000a900473ffffffffffffffffffffffffffffffffffffffff1673ffffffffffffffffffffffffffffffffffffffff166318160ddd6040518163ffffffff1660e01b815260040160206040518083038186803b15801561282c57600080fd5b505afa158015612840573d6000803e3d6000fd5b505050506040513d601f19601f820116820180604052508101906128649190612fb5565b84600660009054906101000a900473ffffffffffffffffffffffffffffffffffffffff1673ffffffffffffffffffffffffffffffffffffffff1663d5abeb016040518163ffffffff1660e01b815260040160206040518083038186803b1580156128cd57600080fd5b505afa1580156128e1573d6000803e3d6000fd5b505050506040513d601f19601f820116820180604052508101906129059190612fb5565b61290f9190613bcf565b6129199190613e21565b600660009054906101000a900473ffffffffffffffffffffffffffffffffffffffff1673ffffffffffffffffffffffffffffffffffffffff166318160ddd6040518163ffffffff1660e01b815260040160206040518083038186803b15801561298157600080fd5b505afa158015612995573d6000803e3d6000fd5b505050506040513d601f19601f820116820180604052508101906129b99190612fb5565b6001600660009054906101000a900473ffffffffffffffffffffffffffffffffffffffff1673ffffffffffffffffffffffffffffffffffffffff1663d5abeb016040518163ffffffff1660e01b815260040160206040518083038186803b158015612a2357600080fd5b505afa158015612a37573d6000803e3d6000fd5b505050506040513d601f19601f82011682018060405250810190612a5b9190612fb5565b612a659190613bcf565b612a6f9190613e21565b84604051612a809493929190613877565b60405180910390a150600160048190555050565b612a9c612c72565b73ffffffffffffffffffffffffffffffffffffffff16612aba610c27565b73ffffffffffffffffffffffffffffffffffffffff1614612b10576040517f08c379a0000000000000000000000000000000000000000000000000000000008152600401612b0790613a42565b60405180910390fd5b600073ffffffffffffffffffffffffffffffffffffffff168173ffffffffffffffffffffffffffffffffffffffff161415612b80576040517f08c379a0000000000000000000000000000000000000000000000000000000008152600401612b77906139c2565b60405180910390fd5b612b8981612c7a565b50565b600660009054906101000a900473ffffffffffffffffffffffffffffffffffffffff1681565b612bba612c72565b73ffffffffffffffffffffffffffffffffffffffff16612bd8610c27565b73ffffffffffffffffffffffffffffffffffffffff1614612c2e576040517f08c379a0000000000000000000000000000000000000000000000000000000008152600401612c2590613a42565b60405180910390fd5b80600860006101000a81548173ffffffffffffffffffffffffffffffffffffffff021916908373ffffffffffffffffffffffffffffffffffffffff16021790555050565b600033905090565b60008060009054906101000a900473ffffffffffffffffffffffffffffffffffffffff169050816000806101000a81548173ffffffffffffffffffffffffffffffffffffffff021916908373ffffffffffffffffffffffffffffffffffffffff1602179055508173ffffffffffffffffffffffffffffffffffffffff168173ffffffffffffffffffffffffffffffffffffffff167f8be0079c531659141344cd1fd0a4f28419497f9722a3daafe3b4186f6b6457e060405160405180910390a35050565b828054828255906000526020600020908101928215612db7579160200282015b82811115612db65782518260006101000a81548173ffffffffffffffffffffffffffffffffffffffff021916908373ffffffffffffffffffffffffffffffffffffffff16021790555091602001919060010190612d5e565b5b509050612dc49190612dc8565b5090565b5b80821115612de1576000816000905550600101612dc9565b5090565b6000612df8612df384613b4e565b613b1d565b90508083825260208201905082856020860282011115612e1757600080fd5b60005b85811015612e475781612e2d8882612e51565b845260208401935060208301925050600181019050612e1a565b5050509392505050565b600081359050612e6081614019565b92915050565b600082601f830112612e7757600080fd5b8135612e87848260208601612de5565b91505092915050565b600081519050612e9f81614030565b92915050565b600081519050612eb481614047565b92915050565b600081359050612ec98161405e565b92915050565b600081519050612ede8161405e565b92915050565b600081519050612ef381614075565b92915050565b600060208284031215612f0b57600080fd5b6000612f1984828501612e51565b91505092915050565b600060208284031215612f3457600080fd5b600082013567ffffffffffffffff811115612f4e57600080fd5b612f5a84828501612e66565b91505092915050565b600060208284031215612f7557600080fd5b6000612f8384828501612e90565b91505092915050565b600060208284031215612f9e57600080fd5b6000612fac84828501612eba565b91505092915050565b600060208284031215612fc757600080fd5b6000612fd584828501612ecf565b91505092915050565b60008060408385031215612ff157600080fd5b6000612fff85828601612eba565b925050602061301085828601612eba565b9150509250929050565b600080600080600060a0868803121561303257600080fd5b600061304088828901612ee4565b955050602061305188828901612ea5565b945050604061306288828901612ecf565b935050606061307388828901612ecf565b925050608061308488828901612ee4565b9150509295509295909350565b600061309d83836130a9565b60208301905092915050565b6130b281613e55565b82525050565b6130c181613e55565b82525050565b60006130d282613b8a565b6130dc8185613ba2565b93506130e783613b7a565b8060005b838110156131185781516130ff8882613091565b975061310a83613b95565b9250506001810190506130eb565b5085935050505092915050565b61312e81613eca565b82525050565b61313d81613eee565b82525050565b61314c81613f12565b82525050565b600061315f602883613bbe565b91507f536872756753616c653a20436f756e742073686f756c64206265206c6573732060008301527f7468616e203130300000000000000000000000000000000000000000000000006020830152604082019050919050565b60006131c5603583613bbe565b91507f536872756753616c653a2043616c6c657220686173206e6f7420616c6c6f776560008301527f6420656e6f7567682053544d582062616c616e636500000000000000000000006020830152604082019050919050565b600061322b602983613bbe565b91507f536872756753616c653a2056616c7565206973206e6f742073616d652061732060008301527f74686520707269636500000000000000000000000000000000000000000000006020830152604082019050919050565b6000613291603383613bbe565b91507f536872756753616c653a2043616c6c657220646f6573206e6f7420686176652060008301527f656e6f75676820555344542062616c616e6365000000000000000000000000006020830152604082019050919050565b60006132f7602683613bbe565b91507f4f776e61626c653a206e6577206f776e657220697320746865207a65726f206160008301527f64647265737300000000000000000000000000000000000000000000000000006020830152604082019050919050565b600061335d603583613bbe565b91507f536872756753616c653a2043616c6c657220686173206e6f7420616c6c6f776560008301527f6420656e6f75676820555344542062616c616e636500000000000000000000006020830152604082019050919050565b60006133c3602d83613bbe565b91507f536872756753616c653a20436f756e74206f6620726563697069656e7473206360008301527f616e2774206578636565642032000000000000000000000000000000000000006020830152604082019050919050565b6000613429603383613bbe565b91507f536872756753616c653a2043616c6c657220646f6573206e6f7420686176652060008301527f656e6f7567682053544d582062616c616e6365000000000000000000000000006020830152604082019050919050565b600061348f600483613bbe565b91507f53544d58000000000000000000000000000000000000000000000000000000006000830152602082019050919050565b60006134cf600483613bbe565b91507f55534454000000000000000000000000000000000000000000000000000000006000830152602082019050919050565b600061350f602083613bbe565b91507f4f776e61626c653a2063616c6c6572206973206e6f7420746865206f776e65726000830152602082019050919050565b600061354f602283613bbe565b91507f536872756753616c653a20456d7074792061727261792069732070726f76696460008301527f65640000000000000000000000000000000000000000000000000000000000006020830152604082019050919050565b60006135b5600383613bbe565b91507f45544800000000000000000000000000000000000000000000000000000000006000830152602082019050919050565b60006135f5602083613bbe565b91507f536872756753616c653a20416c6c20746f6b656e7320617265206d696e7465646000830152602082019050919050565b6000613635600083613bb3565b9150600082019050919050565b600061364f601d83613bbe565b91507f536872756753616c653a206661696c656420746f207472616e736665720000006000830152602082019050919050565b600061368f602483613bbe565b91507f536872756753616c653a20496e76616c696420726563697069656e742061646460008301527f72657373000000000000000000000000000000000000000000000000000000006020830152604082019050919050565b60006136f5601f83613bbe565b91507f5265656e7472616e637947756172643a207265656e7472616e742063616c6c006000830152602082019050919050565b61373181613e9d565b82525050565b600061374282613628565b9150819050919050565b600060208201905061376160008301846130b8565b92915050565b600060408201905061377c60008301856130b8565b61378960208301846130b8565b9392505050565b60006060820190506137a560008301866130b8565b6137b260208301856130b8565b6137bf6040830184613728565b949350505050565b600060a0820190506137dc60008301876130b8565b6137e96020830186613728565b6137f66040830185613728565b6138036060830184613728565b818103608083015261381481613482565b905095945050505050565b600060a08201905061383460008301876130b8565b6138416020830186613728565b61384e6040830185613728565b61385b6060830184613728565b818103608083015261386c816134c2565b905095945050505050565b600060a08201905061388c60008301876130b8565b6138996020830186613728565b6138a66040830185613728565b6138b36060830184613728565b81810360808301526138c4816135a8565b905095945050505050565b600060208201905081810360008301526138e981846130c7565b905092915050565b60006020820190506139066000830184613125565b92915050565b60006020820190506139216000830184613134565b92915050565b600060208201905061393c6000830184613143565b92915050565b6000602082019050818103600083015261395b81613152565b9050919050565b6000602082019050818103600083015261397b816131b8565b9050919050565b6000602082019050818103600083015261399b8161321e565b9050919050565b600060208201905081810360008301526139bb81613284565b9050919050565b600060208201905081810360008301526139db816132ea565b9050919050565b600060208201905081810360008301526139fb81613350565b9050919050565b60006020820190508181036000830152613a1b816133b6565b9050919050565b60006020820190508181036000830152613a3b8161341c565b9050919050565b60006020820190508181036000830152613a5b81613502565b9050919050565b60006020820190508181036000830152613a7b81613542565b9050919050565b60006020820190508181036000830152613a9b816135e8565b9050919050565b60006020820190508181036000830152613abb81613642565b9050919050565b60006020820190508181036000830152613adb81613682565b9050919050565b60006020820190508181036000830152613afb816136e8565b9050919050565b6000602082019050613b176000830184613728565b92915050565b6000604051905081810181811067ffffffffffffffff82111715613b4457613b43613fdd565b5b8060405250919050565b600067ffffffffffffffff821115613b6957613b68613fdd565b5b602082029050602081019050919050565b6000819050602082019050919050565b600081519050919050565b6000602082019050919050565b600082825260208201905092915050565b600081905092915050565b600082825260208201905092915050565b6000613bda82613e9d565b9150613be583613e9d565b9250827fffffffffffffffffffffffffffffffffffffffffffffffffffffffffffffffff03821115613c1a57613c19613f7f565b5b828201905092915050565b6000613c3082613e9d565b9150613c3b83613e9d565b925082613c4b57613c4a613fae565b5b828204905092915050565b6000808291508390505b6001851115613ca057808604811115613c7c57613c7b613f7f565b5b6001851615613c8b5780820291505b8081029050613c998561400c565b9450613c60565b94509492505050565b6000613cb482613e9d565b9150613cbf83613ea7565b9250613cec7fffffffffffffffffffffffffffffffffffffffffffffffffffffffffffffffff8484613cf4565b905092915050565b600082613d045760019050613dc0565b81613d125760009050613dc0565b8160018114613d285760028114613d3257613d61565b6001915050613dc0565b60ff841115613d4457613d43613f7f565b5b8360020a915084821115613d5b57613d5a613f7f565b5b50613dc0565b5060208310610133831016604e8410600b8410161715613d965782820a905083811115613d9157613d90613f7f565b5b613dc0565b613da38484846001613c56565b92509050818404811115613dba57613db9613f7f565b5b81810290505b9392505050565b6000613dd282613e9d565b9150613ddd83613e9d565b9250817fffffffffffffffffffffffffffffffffffffffffffffffffffffffffffffffff0483118215151615613e1657613e15613f7f565b5b828202905092915050565b6000613e2c82613e9d565b9150613e3783613e9d565b925082821015613e4a57613e49613f7f565b5b828203905092915050565b6000613e6082613e7d565b9050919050565b60008115159050919050565b6000819050919050565b600073ffffffffffffffffffffffffffffffffffffffff82169050919050565b6000819050919050565b600060ff82169050919050565b600069ffffffffffffffffffff82169050919050565b6000613ed582613edc565b9050919050565b6000613ee782613e7d565b9050919050565b6000613ef982613f00565b9050919050565b6000613f0b82613e7d565b9050919050565b6000613f1d82613f24565b9050919050565b6000613f2f82613e7d565b9050919050565b6000613f4182613e9d565b91507fffffffffffffffffffffffffffffffffffffffffffffffffffffffffffffffff821415613f7457613f73613f7f565b5b600182019050919050565b7f4e487b7100000000000000000000000000000000000000000000000000000000600052601160045260246000fd5b7f4e487b7100000000000000000000000000000000000000000000000000000000600052601260045260246000fd5b7f4e487b7100000000000000000000000000000000000000000000000000000000600052604160045260246000fd5b60008160011c9050919050565b61402281613e55565b811461402d57600080fd5b50565b61403981613e67565b811461404457600080fd5b50565b61405081613e73565b811461405b57600080fd5b50565b61406781613e9d565b811461407257600080fd5b50565b61407e81613eb4565b811461408957600080fd5b5056fea26469706673582212207f1d2600913e91dfdcee0449dbe50b5e7e2591363cfc6f8c487d96906b31317264736f6c63430008000033",
  "immutableReferences": {},
  "source": "// SPDX-License-Identifier: UNLICENSED\npragma solidity 0.8.0;\n\nimport \"@openzeppelin/contracts/token/ERC20/IERC20.sol\";\nimport \"@openzeppelin/contracts/security/ReentrancyGuard.sol\";\nimport \"../interfaces/IShrugToken.sol\";\nimport \"../curves/Exponential.sol\";\n\n/**\n * @title Shrug Sale Contract\n */\ncontract ShrugSale is Exponential, ReentrancyGuard {\n\n    /// @notice Event emitted only on construction. To be used by indexers\n    event ShrugSaleDeployed();\n\n    /// @notice Recipients update event\n    event UpdatedRecipients(\n        address[] recipients\n    );\n\n    /// @notice Token bought event\n    event TokenBought(\n        address buyer,\n        uint256 firstTokenId,\n        uint256 lastTokenId,\n        uint256 value,\n        string currency\n    );\n\n    /// @notice addresses of recipients who received the funds\n    address[] public recipients;\n\n    /// @notice ERC721 NFT\n    IShrugToken public token;\n\n    /// @notice USDT token contract\n    IERC20 public USDTToken;\n\n    /// @notice STMX token contract\n    IERC20 public STMXToken;\n\n    /**\n     * @dev Constructor function\n     * @param _token Token Instance\n     */\n    constructor(\n        IShrugToken _token\n    ) {\n        token = _token;\n\n        emit ShrugSaleDeployed();\n    }\n\n    /**\n     * @dev Set recipients\n     * @param _recipients array of recipients' address\n     */\n    function setRecipients(address[] memory _recipients) external onlyOwner {\n        require(\n            _recipients.length > 0,\n            \"ShrugSale: Empty array is provided\"\n        );\n        require(\n            _recipients.length <= 2,\n            \"ShrugSale: Count of recipients can't exceed 2\"\n        );\n        \n        for(uint256 i = 0; i < _recipients.length; i++) {\n            require(_recipients[i] != address(0), \"ShrugSale: Invalid recipient address\");\n        }\n\n        recipients = _recipients;\n\n        emit UpdatedRecipients(_recipients);\n    }\n\n    /**\n     * @dev Buy Function in ETH\n     * @param _count Count of tokens to buy\n     */\n    function buyInETH(uint256 _count) external payable nonReentrant {\n        require(\n            _count < 100,\n            \"ShrugSale: Count should be less than 100\"\n        );\n        require(\n            (token.totalSupply() + _count) <= token.maxSupply(),\n            \"ShrugSale: All tokens are minted\"\n        );\n\n        uint256 price = getPrice(_count, 0);\n        require(\n            msg.value == price,\n            \"ShrugSale: Value is not same as the price\"\n        );\n\n        for(uint256 i = 0; i < recipients.length; i++) {\n            (bool transferSuccess, ) = recipients[i].call{value: price / recipients.length}(\"\");\n            require(\n                transferSuccess,\n                \"ShrugSale: failed to transfer\"\n            );\n        }\n\n        for(uint256 i = 0; i < _count; i++) {\n            token.mint(msg.sender);\n        }\n\n        emit TokenBought(msg.sender, token.maxSupply() + _count - token.totalSupply(), token.maxSupply() + 1 - token.totalSupply(), price, \"ETH\");\n    }\n\n    /**\n     * @dev Buy Function in USDT\n     * @param _count Count of tokens to buy\n     */\n    function buyInUSDT(uint256 _count) external nonReentrant {\n        require(\n            _count < 100,\n            \"ShrugSale: Count should be less than 100\"\n        );\n        require(\n            (token.totalSupply() + _count) <= token.maxSupply(),\n            \"ShrugSale: All tokens are minted\"\n        );\n\n        uint256 price = getPrice(_count, 1);\n        require(\n            USDTToken.balanceOf(msg.sender) >= price,\n            \"ShrugSale: Caller does not have enough USDT balance\"\n        );\n        require(\n            USDTToken.allowance(msg.sender, address(this)) >= price,\n            \"ShrugSale: Caller has not allowed enough USDT balance\"\n        );\n\n        for(uint256 i = 0; i < recipients.length; i++) {\n            bool transferSuccess = USDTToken.transferFrom(msg.sender, recipients[i], price / recipients.length);\n            require(\n                transferSuccess,\n                \"ShrugSale: failed to transfer\"\n            );\n        }\n\n        for(uint256 i = 0; i < _count; i++) {\n            token.mint(msg.sender);\n        }\n\n        emit TokenBought(msg.sender, token.maxSupply() + _count - token.totalSupply(), token.maxSupply() + 1 - token.totalSupply(), price, \"USDT\");\n    }\n\n    /**\n     * @dev Buy Function in STMX\n     * @param _count Count of tokens to buy\n     */\n    function buyInSTMX(uint256 _count) external nonReentrant {\n        require(\n            _count < 100,\n            \"ShrugSale: Count should be less than 100\"\n        );\n        require(\n            (token.totalSupply() + _count) <= token.maxSupply(),\n            \"ShrugSale: All tokens are minted\"\n        );\n\n        uint256 price = getPrice(_count, 2);\n        require(\n            STMXToken.balanceOf(msg.sender) >= price,\n            \"ShrugSale: Caller does not have enough STMX balance\"\n        );\n        require(\n            STMXToken.allowance(msg.sender, address(this)) >= price,\n            \"ShrugSale: Caller has not allowed enough STMX balance\"\n        );\n\n        for(uint256 i = 0; i < recipients.length; i++) {\n            bool transferSuccess = STMXToken.transferFrom(msg.sender, recipients[i], price / recipients.length);\n            require(\n                transferSuccess,\n                \"ShrugSale: failed to transfer\"\n            );\n        }\n\n        for(uint256 i = 0; i < _count; i++) {\n            token.mint(msg.sender);\n        }\n\n        emit TokenBought(msg.sender, token.maxSupply() + _count - token.totalSupply(), token.maxSupply() + 1 - token.totalSupply(), price, \"STMX\");\n    }\n\n    /**\n     * @dev Public get price\n     * @param _count Count of tokens which wanna get the price of\n     */\n    function getPrice(uint256 _count, uint256 currency) public view returns (uint256) {\n        require(\n            _count < 100,\n            \"ShrugSale: Count should be less than 100\"\n        );\n        uint256 price;\n        for(uint256 i = 0; i < _count; i++) {\n            price += calculatePrice(token.totalSupply() + i, currency);\n        }\n\n        return price;\n    }\n\n    /**\n     * @dev Owner can set USDT token contract\n     * @param _addr address of USDT token\n     */\n    function setUSDTTokenContract(address _addr) public onlyOwner {\n        USDTToken = IERC20(address(_addr));\n    }\n\n    /**\n     * @dev Owner can set STMX token contract\n     * @param _addr address of STMX token\n     */\n    function setSTMXTokenContract(address _addr) public onlyOwner {\n        STMXToken = IERC20(address(_addr));\n    }\n}",
  "sourcePath": "/Users/lovelytinker/Downloads/nft-shrug-master/contracts/sale/ShrugSale.sol",
  "compiler": {
    "name": "solc",
    "version": "0.8.0+commit.c7dfd78e.Emscripten.clang"
  },
  "schemaVersion": "3.4.3",
  "updatedAt": "2021-10-01T05:49:19.287Z",
  "devdoc": {
    "kind": "dev",
    "methods": {
      "buyInETH(uint256)": {
        "details": "Buy Function in ETH",
        "params": {
          "_count": "Count of tokens to buy"
        }
      },
      "buyInSTMX(uint256)": {
        "details": "Buy Function in STMX",
        "params": {
          "_count": "Count of tokens to buy"
        }
      },
      "buyInUSDT(uint256)": {
        "details": "Buy Function in USDT",
        "params": {
          "_count": "Count of tokens to buy"
        }
      },
      "constructor": {
        "details": "Constructor function",
        "params": {
          "_token": "Token Instance"
        }
      },
      "getPrice(uint256,uint256)": {
        "details": "Public get price",
        "params": {
          "_count": "Count of tokens which wanna get the price of"
        }
      },
      "owner()": {
        "details": "Returns the address of the current owner."
      },
      "renounceOwnership()": {
        "details": "Leaves the contract without owner. It will not be possible to call `onlyOwner` functions anymore. Can only be called by the current owner. NOTE: Renouncing ownership will leave the contract without an owner, thereby removing any functionality that is only available to the owner."
      },
      "setETHUSDAggregatorContract(address)": {
        "details": "Owner can set ETH / USD Aggregator contract",
        "params": {
          "_addr": "Address of aggregator contract"
        }
      },
      "setRecipients(address[])": {
        "details": "Set recipients",
        "params": {
          "_recipients": "array of recipients' address"
        }
      },
      "setSTMXTokenContract(address)": {
        "details": "Owner can set STMX token contract",
        "params": {
          "_addr": "address of STMX token"
        }
      },
      "setSTMXUSDAggregatorContract(address)": {
        "details": "Owner can set STMX / USD Aggregator contract",
        "params": {
          "_addr": "Address of aggregator contract"
        }
      },
      "setUSDTTokenContract(address)": {
        "details": "Owner can set USDT token contract",
        "params": {
          "_addr": "address of USDT token"
        }
      },
      "setUSDTUSDAggregatorContract(address)": {
        "details": "Owner can set USDT / USD Aggregator contract",
        "params": {
          "_addr": "Address of aggregator contract"
        }
      },
      "transferOwnership(address)": {
        "details": "Transfers ownership of the contract to a new account (`newOwner`). Can only be called by the current owner."
      }
    },
    "title": "Shrug Sale Contract",
    "version": 1
  },
  "userdoc": {
    "events": {
      "ShrugSaleDeployed()": {
        "notice": "Event emitted only on construction. To be used by indexers"
      },
      "TokenBought(address,uint256,uint256,uint256,string)": {
        "notice": "Token bought event"
      },
      "UpdatedRecipients(address[])": {
        "notice": "Recipients update event"
      }
    },
    "kind": "user",
    "methods": {
      "STMXToken()": {
        "notice": "STMX token contract"
      },
      "USDTToken()": {
        "notice": "USDT token contract"
      },
      "recipients(uint256)": {
        "notice": "addresses of recipients who received the funds"
      },
      "token()": {
        "notice": "ERC721 NFT"
      }
    },
    "version": 1
  }
}