{
  "contractName": "ShrugToken",
  "abi": [
    {
      "inputs": [
        {
          "internalType": "string",
          "name": "_name",
          "type": "string"
        },
        {
          "internalType": "string",
          "name": "_symbol",
          "type": "string"
        },
        {
          "internalType": "string",
          "name": "baseURI_",
          "type": "string"
        }
      ],
      "stateMutability": "nonpayable",
      "type": "constructor"
    },
    {
      "anonymous": false,
      "inputs": [
        {
          "indexed": true,
          "internalType": "address",
          "name": "owner",
          "type": "address"
        },
        {
          "indexed": true,
          "internalType": "address",
          "name": "approved",
          "type": "address"
        },
        {
          "indexed": true,
          "internalType": "uint256",
          "name": "tokenId",
          "type": "uint256"
        }
      ],
      "name": "Approval",
      "type": "event"
    },
    {
      "anonymous": false,
      "inputs": [
        {
          "indexed": true,
          "internalType": "address",
          "name": "owner",
          "type": "address"
        },
        {
          "indexed": true,
          "internalType": "address",
          "name": "operator",
          "type": "address"
        },
        {
          "indexed": false,
          "internalType": "bool",
          "name": "approved",
          "type": "bool"
        }
      ],
      "name": "ApprovalForAll",
      "type": "event"
    },
    {
      "anonymous": false,
      "inputs": [
        {
          "indexed": true,
          "internalType": "bytes32",
          "name": "role",
          "type": "bytes32"
        },
        {
          "indexed": true,
          "internalType": "bytes32",
          "name": "previousAdminRole",
          "type": "bytes32"
        },
        {
          "indexed": true,
          "internalType": "bytes32",
          "name": "newAdminRole",
          "type": "bytes32"
        }
      ],
      "name": "RoleAdminChanged",
      "type": "event"
    },
    {
      "anonymous": false,
      "inputs": [
        {
          "indexed": true,
          "internalType": "bytes32",
          "name": "role",
          "type": "bytes32"
        },
        {
          "indexed": true,
          "internalType": "address",
          "name": "account",
          "type": "address"
        },
        {
          "indexed": true,
          "internalType": "address",
          "name": "sender",
          "type": "address"
        }
      ],
      "name": "RoleGranted",
      "type": "event"
    },
    {
      "anonymous": false,
      "inputs": [
        {
          "indexed": true,
          "internalType": "bytes32",
          "name": "role",
          "type": "bytes32"
        },
        {
          "indexed": true,
          "internalType": "address",
          "name": "account",
          "type": "address"
        },
        {
          "indexed": true,
          "internalType": "address",
          "name": "sender",
          "type": "address"
        }
      ],
      "name": "RoleRevoked",
      "type": "event"
    },
    {
      "anonymous": false,
      "inputs": [
        {
          "indexed": true,
          "internalType": "address",
          "name": "from",
          "type": "address"
        },
        {
          "indexed": true,
          "internalType": "address",
          "name": "to",
          "type": "address"
        },
        {
          "indexed": true,
          "internalType": "uint256",
          "name": "tokenId",
          "type": "uint256"
        }
      ],
      "name": "Transfer",
      "type": "event"
    },
    {
      "inputs": [],
      "name": "DEFAULT_ADMIN_ROLE",
      "outputs": [
        {
          "internalType": "bytes32",
          "name": "",
          "type": "bytes32"
        }
      ],
      "stateMutability": "view",
      "type": "function"
    },
    {
      "inputs": [],
      "name": "MINTER_ROLE",
      "outputs": [
        {
          "internalType": "bytes32",
          "name": "",
          "type": "bytes32"
        }
      ],
      "stateMutability": "view",
      "type": "function"
    },
    {
      "inputs": [
        {
          "internalType": "address",
          "name": "_account",
          "type": "address"
        }
      ],
      "name": "addAdmin",
      "outputs": [],
      "stateMutability": "nonpayable",
      "type": "function"
    },
    {
      "inputs": [
        {
          "internalType": "address",
          "name": "_account",
          "type": "address"
        }
      ],
      "name": "addMinter",
      "outputs": [],
      "stateMutability": "nonpayable",
      "type": "function"
    },
    {
      "inputs": [
        {
          "internalType": "address",
          "name": "to",
          "type": "address"
        },
        {
          "internalType": "uint256",
          "name": "tokenId",
          "type": "uint256"
        }
      ],
      "name": "approve",
      "outputs": [],
      "stateMutability": "nonpayable",
      "type": "function"
    },
    {
      "inputs": [
        {
          "internalType": "address",
          "name": "owner",
          "type": "address"
        }
      ],
      "name": "balanceOf",
      "outputs": [
        {
          "internalType": "uint256",
          "name": "",
          "type": "uint256"
        }
      ],
      "stateMutability": "view",
      "type": "function"
    },
    {
      "inputs": [
        {
          "internalType": "uint256",
          "name": "tokenId",
          "type": "uint256"
        }
      ],
      "name": "getApproved",
      "outputs": [
        {
          "internalType": "address",
          "name": "",
          "type": "address"
        }
      ],
      "stateMutability": "view",
      "type": "function"
    },
    {
      "inputs": [
        {
          "internalType": "bytes32",
          "name": "role",
          "type": "bytes32"
        }
      ],
      "name": "getRoleAdmin",
      "outputs": [
        {
          "internalType": "bytes32",
          "name": "",
          "type": "bytes32"
        }
      ],
      "stateMutability": "view",
      "type": "function"
    },
    {
      "inputs": [
        {
          "internalType": "bytes32",
          "name": "role",
          "type": "bytes32"
        },
        {
          "internalType": "address",
          "name": "account",
          "type": "address"
        }
      ],
      "name": "grantRole",
      "outputs": [],
      "stateMutability": "nonpayable",
      "type": "function"
    },
    {
      "inputs": [
        {
          "internalType": "bytes32",
          "name": "role",
          "type": "bytes32"
        },
        {
          "internalType": "address",
          "name": "account",
          "type": "address"
        }
      ],
      "name": "hasRole",
      "outputs": [
        {
          "internalType": "bool",
          "name": "",
          "type": "bool"
        }
      ],
      "stateMutability": "view",
      "type": "function"
    },
    {
      "inputs": [
        {
          "internalType": "address",
          "name": "owner",
          "type": "address"
        },
        {
          "internalType": "address",
          "name": "operator",
          "type": "address"
        }
      ],
      "name": "isApprovedForAll",
      "outputs": [
        {
          "internalType": "bool",
          "name": "",
          "type": "bool"
        }
      ],
      "stateMutability": "view",
      "type": "function"
    },
    {
      "inputs": [],
      "name": "maxSupply",
      "outputs": [
        {
          "internalType": "uint256",
          "name": "",
          "type": "uint256"
        }
      ],
      "stateMutability": "view",
      "type": "function"
    },
    {
      "inputs": [],
      "name": "name",
      "outputs": [
        {
          "internalType": "string",
          "name": "",
          "type": "string"
        }
      ],
      "stateMutability": "view",
      "type": "function"
    },
    {
      "inputs": [
        {
          "internalType": "uint256",
          "name": "tokenId",
          "type": "uint256"
        }
      ],
      "name": "ownerOf",
      "outputs": [
        {
          "internalType": "address",
          "name": "",
          "type": "address"
        }
      ],
      "stateMutability": "view",
      "type": "function"
    },
    {
      "inputs": [
        {
          "internalType": "address",
          "name": "_account",
          "type": "address"
        }
      ],
      "name": "removeAdmin",
      "outputs": [],
      "stateMutability": "nonpayable",
      "type": "function"
    },
    {
      "inputs": [
        {
          "internalType": "address",
          "name": "_account",
          "type": "address"
        }
      ],
      "name": "removeMinter",
      "outputs": [],
      "stateMutability": "nonpayable",
      "type": "function"
    },
    {
      "inputs": [
        {
          "internalType": "bytes32",
          "name": "role",
          "type": "bytes32"
        },
        {
          "internalType": "address",
          "name": "account",
          "type": "address"
        }
      ],
      "name": "renounceRole",
      "outputs": [],
      "stateMutability": "nonpayable",
      "type": "function"
    },
    {
      "inputs": [
        {
          "internalType": "bytes32",
          "name": "role",
          "type": "bytes32"
        },
        {
          "internalType": "address",
          "name": "account",
          "type": "address"
        }
      ],
      "name": "revokeRole",
      "outputs": [],
      "stateMutability": "nonpayable",
      "type": "function"
    },
    {
      "inputs": [
        {
          "internalType": "address",
          "name": "from",
          "type": "address"
        },
        {
          "internalType": "address",
          "name": "to",
          "type": "address"
        },
        {
          "internalType": "uint256",
          "name": "tokenId",
          "type": "uint256"
        }
      ],
      "name": "safeTransferFrom",
      "outputs": [],
      "stateMutability": "nonpayable",
      "type": "function"
    },
    {
      "inputs": [
        {
          "internalType": "address",
          "name": "from",
          "type": "address"
        },
        {
          "internalType": "address",
          "name": "to",
          "type": "address"
        },
        {
          "internalType": "uint256",
          "name": "tokenId",
          "type": "uint256"
        },
        {
          "internalType": "bytes",
          "name": "_data",
          "type": "bytes"
        }
      ],
      "name": "safeTransferFrom",
      "outputs": [],
      "stateMutability": "nonpayable",
      "type": "function"
    },
    {
      "inputs": [
        {
          "internalType": "address",
          "name": "operator",
          "type": "address"
        },
        {
          "internalType": "bool",
          "name": "approved",
          "type": "bool"
        }
      ],
      "name": "setApprovalForAll",
      "outputs": [],
      "stateMutability": "nonpayable",
      "type": "function"
    },
    {
      "inputs": [
        {
          "internalType": "bytes4",
          "name": "interfaceId",
          "type": "bytes4"
        }
      ],
      "name": "supportsInterface",
      "outputs": [
        {
          "internalType": "bool",
          "name": "",
          "type": "bool"
        }
      ],
      "stateMutability": "view",
      "type": "function"
    },
    {
      "inputs": [],
      "name": "symbol",
      "outputs": [
        {
          "internalType": "string",
          "name": "",
          "type": "string"
        }
      ],
      "stateMutability": "view",
      "type": "function"
    },
    {
      "inputs": [
        {
          "internalType": "uint256",
          "name": "tokenId",
          "type": "uint256"
        }
      ],
      "name": "tokenURI",
      "outputs": [
        {
          "internalType": "string",
          "name": "",
          "type": "string"
        }
      ],
      "stateMutability": "view",
      "type": "function"
    },
    {
      "inputs": [],
      "name": "totalSupply",
      "outputs": [
        {
          "internalType": "uint256",
          "name": "",
          "type": "uint256"
        }
      ],
      "stateMutability": "view",
      "type": "function"
    },
    {
      "inputs": [
        {
          "internalType": "address",
          "name": "from",
          "type": "address"
        },
        {
          "internalType": "address",
          "name": "to",
          "type": "address"
        },
        {
          "internalType": "uint256",
          "name": "tokenId",
          "type": "uint256"
        }
      ],
      "name": "transferFrom",
      "outputs": [],
      "stateMutability": "nonpayable",
      "type": "function"
    },
    {
      "inputs": [],
      "name": "getBaseURI",
      "outputs": [
        {
          "internalType": "string",
          "name": "",
          "type": "string"
        }
      ],
      "stateMutability": "view",
      "type": "function"
    },
    {
      "inputs": [
        {
          "internalType": "address",
          "name": "to",
          "type": "address"
        }
      ],
      "name": "mint",
      "outputs": [],
      "stateMutability": "nonpayable",
      "type": "function"
    }
  ],
  "bytecode": "0x60806040523480156200001157600080fd5b5060405162003cbf38038062003cbf833981810160405281019062000037919062000362565b82826200005d6000801b62000051620000ab60201b60201c565b620000b360201b60201c565b81600190805190602001906200007592919062000240565b5080600290805190602001906200008e92919062000240565b505050620000a281620000c960201b60201c565b50505062000534565b600033905090565b620000c58282620000e560201b60201c565b5050565b8060079080519060200190620000e192919062000240565b5050565b620000f78282620001d660201b60201c565b620001d257600160008084815260200190815260200160002060000160008373ffffffffffffffffffffffffffffffffffffffff1673ffffffffffffffffffffffffffffffffffffffff16815260200190815260200160002060006101000a81548160ff02191690831515021790555062000177620000ab60201b60201c565b73ffffffffffffffffffffffffffffffffffffffff168173ffffffffffffffffffffffffffffffffffffffff16837f2f8788117e7eff1d82e926ec794901d17c78024a50270940304540a733656f0d60405160405180910390a45b5050565b600080600084815260200190815260200160002060000160008373ffffffffffffffffffffffffffffffffffffffff1673ffffffffffffffffffffffffffffffffffffffff16815260200190815260200160002060009054906101000a900460ff16905092915050565b8280546200024e90620004a0565b90600052602060002090601f016020900481019282620002725760008555620002be565b82601f106200028d57805160ff1916838001178555620002be565b82800160010185558215620002be579182015b82811115620002bd578251825591602001919060010190620002a0565b5b509050620002cd9190620002d1565b5090565b5b80821115620002ec576000816000905550600101620002d2565b5090565b600062000307620003018462000437565b62000403565b9050828152602081018484840111156200032057600080fd5b6200032d8482856200046a565b509392505050565b600082601f8301126200034757600080fd5b815162000359848260208601620002f0565b91505092915050565b6000806000606084860312156200037857600080fd5b600084015167ffffffffffffffff8111156200039357600080fd5b620003a18682870162000335565b935050602084015167ffffffffffffffff811115620003bf57600080fd5b620003cd8682870162000335565b925050604084015167ffffffffffffffff811115620003eb57600080fd5b620003f98682870162000335565b9150509250925092565b6000604051905081810181811067ffffffffffffffff821117156200042d576200042c62000505565b5b8060405250919050565b600067ffffffffffffffff82111562000455576200045462000505565b5b601f19601f8301169050602081019050919050565b60005b838110156200048a5780820151818401526020810190506200046d565b838111156200049a576000848401525b50505050565b60006002820490506001821680620004b957607f821691505b60208210811415620004d057620004cf620004d6565b5b50919050565b7f4e487b7100000000000000000000000000000000000000000000000000000000600052602260045260246000fd5b7f4e487b7100000000000000000000000000000000000000000000000000000000600052604160045260246000fd5b61377b80620005446000396000f3fe608060405234801561001057600080fd5b50600436106101c45760003560e01c806370480275116100f9578063a22cb46511610097578063d539139311610071578063d5391393146104ff578063d547741f1461051d578063d5abeb0114610539578063e985e9c514610557576101c4565b8063a22cb46514610497578063b88d4fde146104b3578063c87b56dd146104cf576101c4565b806391d14854116100d357806391d148541461040f57806395d89b411461043f578063983b2d561461045d578063a217fddf14610479576101c4565b806370480275146103a557806370a08231146103c1578063714c5398146103f1576101c4565b8063248a9ca31161016657806336568abe1161014057806336568abe1461032157806342842e0e1461033d5780636352211e146103595780636a62784214610389576101c4565b8063248a9ca3146102b95780632f2ff15d146102e95780633092afd514610305576101c4565b8063095ea7b3116101a2578063095ea7b3146102475780631785f53c1461026357806318160ddd1461027f57806323b872dd1461029d576101c4565b806301ffc9a7146101c957806306fdde03146101f9578063081812fc14610217575b600080fd5b6101e360048036038101906101de9190612670565b610587565b6040516101f09190612fe3565b60405180910390f35b610201610669565b60405161020e9190613019565b60405180910390f35b610231600480360381019061022c91906126c2565b6106fb565b60405161023e9190612f7c565b60405180910390f35b610261600480360381019061025c91906125cf565b610780565b005b61027d60048036038101906102789190612464565b610898565b005b6102876108f7565b604051610294919061329b565b60405180910390f35b6102b760048036038101906102b291906124c9565b6108fd565b005b6102d360048036038101906102ce919061260b565b61095d565b6040516102e09190612ffe565b60405180910390f35b61030360048036038101906102fe9190612634565b61097c565b005b61031f600480360381019061031a9190612464565b6109a5565b005b61033b60048036038101906103369190612634565b610a21565b005b610357600480360381019061035291906124c9565b610aa4565b005b610373600480360381019061036e91906126c2565b610ac4565b6040516103809190612f7c565b60405180910390f35b6103a3600480360381019061039e9190612464565b610b76565b005b6103bf60048036038101906103ba9190612464565b610c4d565b005b6103db60048036038101906103d69190612464565b610cac565b6040516103e8919061329b565b60405180910390f35b6103f9610d64565b6040516104069190613019565b60405180910390f35b61042960048036038101906104249190612634565b610df6565b6040516104369190612fe3565b60405180910390f35b610447610e60565b6040516104549190613019565b60405180910390f35b61047760048036038101906104729190612464565b610ef2565b005b610481610f6e565b60405161048e9190612ffe565b60405180910390f35b6104b160048036038101906104ac9190612593565b610f75565b005b6104cd60048036038101906104c89190612518565b6110f6565b005b6104e960048036038101906104e491906126c2565b611158565b6040516104f69190613019565b60405180910390f35b6105076111ff565b6040516105149190612ffe565b60405180910390f35b61053760048036038101906105329190612634565b611223565b005b61054161124c565b60405161054e919061329b565b60405180910390f35b610571600480360381019061056c919061248d565b611252565b60405161057e9190612fe3565b60405180910390f35b60007f80ac58cd000000000000000000000000000000000000000000000000000000007bffffffffffffffffffffffffffffffffffffffffffffffffffffffff1916827bffffffffffffffffffffffffffffffffffffffffffffffffffffffff1916148061065257507f5b5e139f000000000000000000000000000000000000000000000000000000007bffffffffffffffffffffffffffffffffffffffffffffffffffffffff1916827bffffffffffffffffffffffffffffffffffffffffffffffffffffffff1916145b806106625750610661826112e6565b5b9050919050565b60606001805461067890613559565b80601f01602080910402602001604051908101604052809291908181526020018280546106a490613559565b80156106f15780601f106106c6576101008083540402835291602001916106f1565b820191906000526020600020905b8154815290600101906020018083116106d457829003601f168201915b5050505050905090565b600061070682611350565b610745576040517f08c379a000000000000000000000000000000000000000000000000000000000815260040161073c906131bb565b60405180910390fd5b6005600083815260200190815260200160002060009054906101000a900473ffffffffffffffffffffffffffffffffffffffff169050919050565b600061078b82610ac4565b90508073ffffffffffffffffffffffffffffffffffffffff168373ffffffffffffffffffffffffffffffffffffffff1614156107fc576040517f08c379a00000000000000000000000000000000000000000000000000000000081526004016107f39061321b565b60405180910390fd5b8073ffffffffffffffffffffffffffffffffffffffff1661081b6113bc565b73ffffffffffffffffffffffffffffffffffffffff16148061084a5750610849816108446113bc565b611252565b5b610889576040517f08c379a00000000000000000000000000000000000000000000000000000000081526004016108809061311b565b60405180910390fd5b61089383836113c4565b505050565b6108a86108a36113bc565b61147d565b6108e7576040517f08c379a00000000000000000000000000000000000000000000000000000000081526004016108de9061317b565b60405180910390fd5b6108f46000801b82611223565b50565b60085481565b61090e6109086113bc565b82611493565b61094d576040517f08c379a00000000000000000000000000000000000000000000000000000000081526004016109449061325b565b60405180910390fd5b610958838383611571565b505050565b6000806000838152602001908152602001600020600101549050919050565b6109858261095d565b610996816109916113bc565b6117cd565b6109a0838361186a565b505050565b6109b56109b06113bc565b61147d565b6109f4576040517f08c379a00000000000000000000000000000000000000000000000000000000081526004016109eb9061317b565b60405180910390fd5b610a1e7f9f2df0fed2c77648de5860a4cc508cd0818c85b8b8a1ab4ceeef8d981c8956a682611223565b50565b610a296113bc565b73ffffffffffffffffffffffffffffffffffffffff168173ffffffffffffffffffffffffffffffffffffffff1614610a96576040517f08c379a0000000000000000000000000000000000000000000000000000000008152600401610a8d9061327b565b60405180910390fd5b610aa0828261194a565b5050565b610abf838383604051806020016040528060008152506110f6565b505050565b6000806003600084815260200190815260200160002060009054906101000a900473ffffffffffffffffffffffffffffffffffffffff169050600073ffffffffffffffffffffffffffffffffffffffff168173ffffffffffffffffffffffffffffffffffffffff161415610b6d576040517f08c379a0000000000000000000000000000000000000000000000000000000008152600401610b649061315b565b60405180910390fd5b80915050919050565b610b86610b816113bc565b611a2b565b610bc5576040517f08c379a0000000000000000000000000000000000000000000000000000000008152600401610bbc9061323b565b60405180910390fd5b6101f460085410610c0b576040517f08c379a0000000000000000000000000000000000000000000000000000000008152600401610c029061309b565b60405180910390fd5b600160086000828254610c1e919061335a565b92505081905550610c4a8160085460016101f4610c3b919061335a565b610c45919061343b565b611a5e565b50565b610c5d610c586113bc565b61147d565b610c9c576040517f08c379a0000000000000000000000000000000000000000000000000000000008152600401610c939061317b565b60405180910390fd5b610ca96000801b82611c2c565b50565b60008073ffffffffffffffffffffffffffffffffffffffff168273ffffffffffffffffffffffffffffffffffffffff161415610d1d576040517f08c379a0000000000000000000000000000000000000000000000000000000008152600401610d149061313b565b60405180910390fd5b600460008373ffffffffffffffffffffffffffffffffffffffff1673ffffffffffffffffffffffffffffffffffffffff168152602001908152602001600020549050919050565b606060078054610d7390613559565b80601f0160208091040260200160405190810160405280929190818152602001828054610d9f90613559565b8015610dec5780601f10610dc157610100808354040283529160200191610dec565b820191906000526020600020905b815481529060010190602001808311610dcf57829003601f168201915b5050505050905090565b600080600084815260200190815260200160002060000160008373ffffffffffffffffffffffffffffffffffffffff1673ffffffffffffffffffffffffffffffffffffffff16815260200190815260200160002060009054906101000a900460ff16905092915050565b606060028054610e6f90613559565b80601f0160208091040260200160405190810160405280929190818152602001828054610e9b90613559565b8015610ee85780601f10610ebd57610100808354040283529160200191610ee8565b820191906000526020600020905b815481529060010190602001808311610ecb57829003601f168201915b5050505050905090565b610f02610efd6113bc565b61147d565b610f41576040517f08c379a0000000000000000000000000000000000000000000000000000000008152600401610f389061317b565b60405180910390fd5b610f6b7f9f2df0fed2c77648de5860a4cc508cd0818c85b8b8a1ab4ceeef8d981c8956a682611c2c565b50565b6000801b81565b610f7d6113bc565b73ffffffffffffffffffffffffffffffffffffffff168273ffffffffffffffffffffffffffffffffffffffff161415610feb576040517f08c379a0000000000000000000000000000000000000000000000000000000008152600401610fe2906130db565b60405180910390fd5b8060066000610ff86113bc565b73ffffffffffffffffffffffffffffffffffffffff1673ffffffffffffffffffffffffffffffffffffffff16815260200190815260200160002060008473ffffffffffffffffffffffffffffffffffffffff1673ffffffffffffffffffffffffffffffffffffffff16815260200190815260200160002060006101000a81548160ff0219169083151502179055508173ffffffffffffffffffffffffffffffffffffffff166110a56113bc565b73ffffffffffffffffffffffffffffffffffffffff167f17307eab39ab6107e8899845ad3d59bd9653f200f220920489ca2b5937696c31836040516110ea9190612fe3565b60405180910390a35050565b6111076111016113bc565b83611493565b611146576040517f08c379a000000000000000000000000000000000000000000000000000000000815260040161113d9061325b565b60405180910390fd5b61115284848484611c3a565b50505050565b606061116382611350565b6111a2576040517f08c379a0000000000000000000000000000000000000000000000000000000008152600401611199906131fb565b60405180910390fd5b60006111ac611c96565b905060008151116111cc57604051806020016040528060008152506111f7565b806111d684611d28565b6040516020016111e7929190612f1e565b6040516020818303038152906040525b915050919050565b7f9f2df0fed2c77648de5860a4cc508cd0818c85b8b8a1ab4ceeef8d981c8956a681565b61122c8261095d565b61123d816112386113bc565b6117cd565b611247838361194a565b505050565b6101f481565b6000600660008473ffffffffffffffffffffffffffffffffffffffff1673ffffffffffffffffffffffffffffffffffffffff16815260200190815260200160002060008373ffffffffffffffffffffffffffffffffffffffff1673ffffffffffffffffffffffffffffffffffffffff16815260200190815260200160002060009054906101000a900460ff16905092915050565b60007f01ffc9a7000000000000000000000000000000000000000000000000000000007bffffffffffffffffffffffffffffffffffffffffffffffffffffffff1916827bffffffffffffffffffffffffffffffffffffffffffffffffffffffff1916149050919050565b60008073ffffffffffffffffffffffffffffffffffffffff166003600084815260200190815260200160002060009054906101000a900473ffffffffffffffffffffffffffffffffffffffff1673ffffffffffffffffffffffffffffffffffffffff1614159050919050565b600033905090565b816005600083815260200190815260200160002060006101000a81548173ffffffffffffffffffffffffffffffffffffffff021916908373ffffffffffffffffffffffffffffffffffffffff160217905550808273ffffffffffffffffffffffffffffffffffffffff1661143783610ac4565b73ffffffffffffffffffffffffffffffffffffffff167f8c5be1e5ebec7d5bd14f71427d1e84f3dd0314c0f7b2291e5b200ac8c7c3b92560405160405180910390a45050565b600061148c6000801b83610df6565b9050919050565b600061149e82611350565b6114dd576040517f08c379a00000000000000000000000000000000000000000000000000000000081526004016114d4906130fb565b60405180910390fd5b60006114e883610ac4565b90508073ffffffffffffffffffffffffffffffffffffffff168473ffffffffffffffffffffffffffffffffffffffff16148061155757508373ffffffffffffffffffffffffffffffffffffffff1661153f846106fb565b73ffffffffffffffffffffffffffffffffffffffff16145b8061156857506115678185611252565b5b91505092915050565b8273ffffffffffffffffffffffffffffffffffffffff1661159182610ac4565b73ffffffffffffffffffffffffffffffffffffffff16146115e7576040517f08c379a00000000000000000000000000000000000000000000000000000000081526004016115de906131db565b60405180910390fd5b600073ffffffffffffffffffffffffffffffffffffffff168273ffffffffffffffffffffffffffffffffffffffff161415611657576040517f08c379a000000000000000000000000000000000000000000000000000000000815260040161164e906130bb565b60405180910390fd5b611662838383611ed5565b61166d6000826113c4565b6001600460008573ffffffffffffffffffffffffffffffffffffffff1673ffffffffffffffffffffffffffffffffffffffff16815260200190815260200160002060008282546116bd919061343b565b925050819055506001600460008473ffffffffffffffffffffffffffffffffffffffff1673ffffffffffffffffffffffffffffffffffffffff1681526020019081526020016000206000828254611714919061335a565b92505081905550816003600083815260200190815260200160002060006101000a81548173ffffffffffffffffffffffffffffffffffffffff021916908373ffffffffffffffffffffffffffffffffffffffff160217905550808273ffffffffffffffffffffffffffffffffffffffff168473ffffffffffffffffffffffffffffffffffffffff167fddf252ad1be2c89b69c2b068fc378daa952ba7f163c4a11628f55a4df523b3ef60405160405180910390a4505050565b6117d78282610df6565b611866576117fc8173ffffffffffffffffffffffffffffffffffffffff166014611eda565b61180a8360001c6020611eda565b60405160200161181b929190612f42565b6040516020818303038152906040526040517f08c379a000000000000000000000000000000000000000000000000000000000815260040161185d9190613019565b60405180910390fd5b5050565b6118748282610df6565b61194657600160008084815260200190815260200160002060000160008373ffffffffffffffffffffffffffffffffffffffff1673ffffffffffffffffffffffffffffffffffffffff16815260200190815260200160002060006101000a81548160ff0219169083151502179055506118eb6113bc565b73ffffffffffffffffffffffffffffffffffffffff168173ffffffffffffffffffffffffffffffffffffffff16837f2f8788117e7eff1d82e926ec794901d17c78024a50270940304540a733656f0d60405160405180910390a45b5050565b6119548282610df6565b15611a2757600080600084815260200190815260200160002060000160008373ffffffffffffffffffffffffffffffffffffffff1673ffffffffffffffffffffffffffffffffffffffff16815260200190815260200160002060006101000a81548160ff0219169083151502179055506119cc6113bc565b73ffffffffffffffffffffffffffffffffffffffff168173ffffffffffffffffffffffffffffffffffffffff16837ff6391f5c32d9c69d2a47ea670b442974b53935d1edc7fd64eb21e047a839171b60405160405180910390a45b5050565b6000611a577f9f2df0fed2c77648de5860a4cc508cd0818c85b8b8a1ab4ceeef8d981c8956a683610df6565b9050919050565b600073ffffffffffffffffffffffffffffffffffffffff168273ffffffffffffffffffffffffffffffffffffffff161415611ace576040517f08c379a0000000000000000000000000000000000000000000000000000000008152600401611ac59061319b565b60405180910390fd5b611ad781611350565b15611b17576040517f08c379a0000000000000000000000000000000000000000000000000000000008152600401611b0e9061307b565b60405180910390fd5b611b2360008383611ed5565b6001600460008473ffffffffffffffffffffffffffffffffffffffff1673ffffffffffffffffffffffffffffffffffffffff1681526020019081526020016000206000828254611b73919061335a565b92505081905550816003600083815260200190815260200160002060006101000a81548173ffffffffffffffffffffffffffffffffffffffff021916908373ffffffffffffffffffffffffffffffffffffffff160217905550808273ffffffffffffffffffffffffffffffffffffffff16600073ffffffffffffffffffffffffffffffffffffffff167fddf252ad1be2c89b69c2b068fc378daa952ba7f163c4a11628f55a4df523b3ef60405160405180910390a45050565b611c36828261186a565b5050565b611c45848484611571565b611c51848484846121d4565b611c90576040517f08c379a0000000000000000000000000000000000000000000000000000000008152600401611c879061305b565b60405180910390fd5b50505050565b606060078054611ca590613559565b80601f0160208091040260200160405190810160405280929190818152602001828054611cd190613559565b8015611d1e5780601f10611cf357610100808354040283529160200191611d1e565b820191906000526020600020905b815481529060010190602001808311611d0157829003601f168201915b5050505050905090565b60606000821415611d70576040518060400160405280600181526020017f30000000000000000000000000000000000000000000000000000000000000008152509050611ed0565b600082905060005b60008214611da2578080611d8b9061358b565b915050600a82611d9b91906133b0565b9150611d78565b60008167ffffffffffffffff811115611de4577f4e487b7100000000000000000000000000000000000000000000000000000000600052604160045260246000fd5b6040519080825280601f01601f191660200182016040528015611e165781602001600182028036833780820191505090505b5090505b60008514611ec957600182611e2f919061343b565b9150600a85611e3e91906135d4565b6030611e4a919061335a565b60f81b818381518110611e86577f4e487b7100000000000000000000000000000000000000000000000000000000600052603260045260246000fd5b60200101907effffffffffffffffffffffffffffffffffffffffffffffffffffffffffffff1916908160001a905350600a85611ec291906133b0565b9450611e1a565b8093505050505b919050565b505050565b606060006002836002611eed91906133e1565b611ef7919061335a565b67ffffffffffffffff811115611f36577f4e487b7100000000000000000000000000000000000000000000000000000000600052604160045260246000fd5b6040519080825280601f01601f191660200182016040528015611f685781602001600182028036833780820191505090505b5090507f300000000000000000000000000000000000000000000000000000000000000081600081518110611fc6577f4e487b7100000000000000000000000000000000000000000000000000000000600052603260045260246000fd5b60200101907effffffffffffffffffffffffffffffffffffffffffffffffffffffffffffff1916908160001a9053507f780000000000000000000000000000000000000000000000000000000000000081600181518110612050577f4e487b7100000000000000000000000000000000000000000000000000000000600052603260045260246000fd5b60200101907effffffffffffffffffffffffffffffffffffffffffffffffffffffffffffff1916908160001a9053506000600184600261209091906133e1565b61209a919061335a565b90505b6001811115612186577f3031323334353637383961626364656600000000000000000000000000000000600f861660108110612102577f4e487b7100000000000000000000000000000000000000000000000000000000600052603260045260246000fd5b1a60f81b82828151811061213f577f4e487b7100000000000000000000000000000000000000000000000000000000600052603260045260246000fd5b60200101907effffffffffffffffffffffffffffffffffffffffffffffffffffffffffffff1916908160001a905350600485901c94508061217f9061352f565b905061209d565b50600084146121ca576040517f08c379a00000000000000000000000000000000000000000000000000000000081526004016121c19061303b565b60405180910390fd5b8091505092915050565b60006121f58473ffffffffffffffffffffffffffffffffffffffff1661236b565b1561235e578373ffffffffffffffffffffffffffffffffffffffff1663150b7a0261221e6113bc565b8786866040518563ffffffff1660e01b81526004016122409493929190612f97565b602060405180830381600087803b15801561225a57600080fd5b505af192505050801561228b57506040513d601f19601f820116820180604052508101906122889190612699565b60015b61230e573d80600081146122bb576040519150601f19603f3d011682016040523d82523d6000602084013e6122c0565b606091505b50600081511415612306576040517f08c379a00000000000000000000000000000000000000000000000000000000081526004016122fd9061305b565b60405180910390fd5b805181602001fd5b63150b7a0260e01b7bffffffffffffffffffffffffffffffffffffffffffffffffffffffff1916817bffffffffffffffffffffffffffffffffffffffffffffffffffffffff191614915050612363565b600190505b949350505050565b600080823b905060008111915050919050565b600061239161238c846132e7565b6132b6565b9050828152602081018484840111156123a957600080fd5b6123b48482856134ed565b509392505050565b6000813590506123cb816136d2565b92915050565b6000813590506123e0816136e9565b92915050565b6000813590506123f581613700565b92915050565b60008135905061240a81613717565b92915050565b60008151905061241f81613717565b92915050565b600082601f83011261243657600080fd5b813561244684826020860161237e565b91505092915050565b60008135905061245e8161372e565b92915050565b60006020828403121561247657600080fd5b6000612484848285016123bc565b91505092915050565b600080604083850312156124a057600080fd5b60006124ae858286016123bc565b92505060206124bf858286016123bc565b9150509250929050565b6000806000606084860312156124de57600080fd5b60006124ec868287016123bc565b93505060206124fd868287016123bc565b925050604061250e8682870161244f565b9150509250925092565b6000806000806080858703121561252e57600080fd5b600061253c878288016123bc565b945050602061254d878288016123bc565b935050604061255e8782880161244f565b925050606085013567ffffffffffffffff81111561257b57600080fd5b61258787828801612425565b91505092959194509250565b600080604083850312156125a657600080fd5b60006125b4858286016123bc565b92505060206125c5858286016123d1565b9150509250929050565b600080604083850312156125e257600080fd5b60006125f0858286016123bc565b92505060206126018582860161244f565b9150509250929050565b60006020828403121561261d57600080fd5b600061262b848285016123e6565b91505092915050565b6000806040838503121561264757600080fd5b6000612655858286016123e6565b9250506020612666858286016123bc565b9150509250929050565b60006020828403121561268257600080fd5b6000612690848285016123fb565b91505092915050565b6000602082840312156126ab57600080fd5b60006126b984828501612410565b91505092915050565b6000602082840312156126d457600080fd5b60006126e28482850161244f565b91505092915050565b6126f48161346f565b82525050565b61270381613481565b82525050565b6127128161348d565b82525050565b600061272382613317565b61272d818561332d565b935061273d8185602086016134fc565b612746816136c1565b840191505092915050565b600061275c82613322565b612766818561333e565b93506127768185602086016134fc565b61277f816136c1565b840191505092915050565b600061279582613322565b61279f818561334f565b93506127af8185602086016134fc565b80840191505092915050565b60006127c860208361333e565b91507f537472696e67733a20686578206c656e67746820696e73756666696369656e746000830152602082019050919050565b600061280860328361333e565b91507f4552433732313a207472616e7366657220746f206e6f6e20455243373231526560008301527f63656976657220696d706c656d656e74657200000000000000000000000000006020830152604082019050919050565b600061286e601c8361333e565b91507f4552433732313a20746f6b656e20616c7265616479206d696e746564000000006000830152602082019050919050565b60006128ae60218361333e565b91507f5368727567546f6b656e3a20416c6c20746f6b656e7320617265206d696e746560008301527f64000000000000000000000000000000000000000000000000000000000000006020830152604082019050919050565b600061291460248361333e565b91507f4552433732313a207472616e7366657220746f20746865207a65726f2061646460008301527f72657373000000000000000000000000000000000000000000000000000000006020830152604082019050919050565b600061297a60198361333e565b91507f4552433732313a20617070726f766520746f2063616c6c6572000000000000006000830152602082019050919050565b60006129ba602c8361333e565b91507f4552433732313a206f70657261746f7220717565727920666f72206e6f6e657860008301527f697374656e7420746f6b656e00000000000000000000000000000000000000006020830152604082019050919050565b6000612a2060388361333e565b91507f4552433732313a20617070726f76652063616c6c6572206973206e6f74206f7760008301527f6e6572206e6f7220617070726f76656420666f7220616c6c00000000000000006020830152604082019050919050565b6000612a86602a8361333e565b91507f4552433732313a2062616c616e636520717565727920666f7220746865207a6560008301527f726f2061646472657373000000000000000000000000000000000000000000006020830152604082019050919050565b6000612aec60298361333e565b91507f4552433732313a206f776e657220717565727920666f72206e6f6e657869737460008301527f656e7420746f6b656e00000000000000000000000000000000000000000000006020830152604082019050919050565b6000612b5260208361333e565b91507f4f776e61626c653a2063616c6c6572206973206e6f74207468652061646d696e6000830152602082019050919050565b6000612b9260208361333e565b91507f4552433732313a206d696e7420746f20746865207a65726f20616464726573736000830152602082019050919050565b6000612bd2602c8361333e565b91507f4552433732313a20617070726f76656420717565727920666f72206e6f6e657860008301527f697374656e7420746f6b656e00000000000000000000000000000000000000006020830152604082019050919050565b6000612c3860298361333e565b91507f4552433732313a207472616e73666572206f6620746f6b656e2074686174206960008301527f73206e6f74206f776e00000000000000000000000000000000000000000000006020830152604082019050919050565b6000612c9e602f8361333e565b91507f4552433732314d657461646174613a2055524920717565727920666f72206e6f60008301527f6e6578697374656e7420746f6b656e00000000000000000000000000000000006020830152604082019050919050565b6000612d0460218361333e565b91507f4552433732313a20617070726f76616c20746f2063757272656e74206f776e6560008301527f72000000000000000000000000000000000000000000000000000000000000006020830152604082019050919050565b6000612d6a60218361333e565b91507f4f776e61626c653a2063616c6c6572206973206e6f7420746865206d696e746560008301527f72000000000000000000000000000000000000000000000000000000000000006020830152604082019050919050565b6000612dd060318361333e565b91507f4552433732313a207472616e736665722063616c6c6572206973206e6f74206f60008301527f776e6572206e6f7220617070726f7665640000000000000000000000000000006020830152604082019050919050565b6000612e3660178361334f565b91507f416363657373436f6e74726f6c3a206163636f756e74200000000000000000006000830152601782019050919050565b6000612e7660118361334f565b91507f206973206d697373696e6720726f6c65200000000000000000000000000000006000830152601182019050919050565b6000612eb6602f8361333e565b91507f416363657373436f6e74726f6c3a2063616e206f6e6c792072656e6f756e636560008301527f20726f6c657320666f722073656c6600000000000000000000000000000000006020830152604082019050919050565b612f18816134e3565b82525050565b6000612f2a828561278a565b9150612f36828461278a565b91508190509392505050565b6000612f4d82612e29565b9150612f59828561278a565b9150612f6482612e69565b9150612f70828461278a565b91508190509392505050565b6000602082019050612f9160008301846126eb565b92915050565b6000608082019050612fac60008301876126eb565b612fb960208301866126eb565b612fc66040830185612f0f565b8181036060830152612fd88184612718565b905095945050505050565b6000602082019050612ff860008301846126fa565b92915050565b60006020820190506130136000830184612709565b92915050565b600060208201905081810360008301526130338184612751565b905092915050565b60006020820190508181036000830152613054816127bb565b9050919050565b60006020820190508181036000830152613074816127fb565b9050919050565b6000602082019050818103600083015261309481612861565b9050919050565b600060208201905081810360008301526130b4816128a1565b9050919050565b600060208201905081810360008301526130d481612907565b9050919050565b600060208201905081810360008301526130f48161296d565b9050919050565b60006020820190508181036000830152613114816129ad565b9050919050565b6000602082019050818103600083015261313481612a13565b9050919050565b6000602082019050818103600083015261315481612a79565b9050919050565b6000602082019050818103600083015261317481612adf565b9050919050565b6000602082019050818103600083015261319481612b45565b9050919050565b600060208201905081810360008301526131b481612b85565b9050919050565b600060208201905081810360008301526131d481612bc5565b9050919050565b600060208201905081810360008301526131f481612c2b565b9050919050565b6000602082019050818103600083015261321481612c91565b9050919050565b6000602082019050818103600083015261323481612cf7565b9050919050565b6000602082019050818103600083015261325481612d5d565b9050919050565b6000602082019050818103600083015261327481612dc3565b9050919050565b6000602082019050818103600083015261329481612ea9565b9050919050565b60006020820190506132b06000830184612f0f565b92915050565b6000604051905081810181811067ffffffffffffffff821117156132dd576132dc613692565b5b8060405250919050565b600067ffffffffffffffff82111561330257613301613692565b5b601f19601f8301169050602081019050919050565b600081519050919050565b600081519050919050565b600082825260208201905092915050565b600082825260208201905092915050565b600081905092915050565b6000613365826134e3565b9150613370836134e3565b9250827fffffffffffffffffffffffffffffffffffffffffffffffffffffffffffffffff038211156133a5576133a4613605565b5b828201905092915050565b60006133bb826134e3565b91506133c6836134e3565b9250826133d6576133d5613634565b5b828204905092915050565b60006133ec826134e3565b91506133f7836134e3565b9250817fffffffffffffffffffffffffffffffffffffffffffffffffffffffffffffffff04831182151516156134305761342f613605565b5b828202905092915050565b6000613446826134e3565b9150613451836134e3565b92508282101561346457613463613605565b5b828203905092915050565b600061347a826134c3565b9050919050565b60008115159050919050565b6000819050919050565b60007fffffffff0000000000000000000000000000000000000000000000000000000082169050919050565b600073ffffffffffffffffffffffffffffffffffffffff82169050919050565b6000819050919050565b82818337600083830152505050565b60005b8381101561351a5780820151818401526020810190506134ff565b83811115613529576000848401525b50505050565b600061353a826134e3565b9150600082141561354e5761354d613605565b5b600182039050919050565b6000600282049050600182168061357157607f821691505b6020821081141561358557613584613663565b5b50919050565b6000613596826134e3565b91507fffffffffffffffffffffffffffffffffffffffffffffffffffffffffffffffff8214156135c9576135c8613605565b5b600182019050919050565b60006135df826134e3565b91506135ea836134e3565b9250826135fa576135f9613634565b5b828206905092915050565b7f4e487b7100000000000000000000000000000000000000000000000000000000600052601160045260246000fd5b7f4e487b7100000000000000000000000000000000000000000000000000000000600052601260045260246000fd5b7f4e487b7100000000000000000000000000000000000000000000000000000000600052602260045260246000fd5b7f4e487b7100000000000000000000000000000000000000000000000000000000600052604160045260246000fd5b6000601f19601f8301169050919050565b6136db8161346f565b81146136e657600080fd5b50565b6136f281613481565b81146136fd57600080fd5b50565b6137098161348d565b811461371457600080fd5b50565b61372081613497565b811461372b57600080fd5b50565b613737816134e3565b811461374257600080fd5b5056fea2646970667358221220022609b9d29e85dda90aecd268939e8fddf84ff2a8b9f90b8a2636b6d808950c64736f6c63430008000033",
  "immutableReferences": {},
  "source": "// SPDX-License-Identifier: UNLICENSED\npragma solidity 0.8.0;\n\nimport \"@openzeppelin/contracts/token/ERC721/ERC721.sol\";\nimport \"../role/MinterRole.sol\";\nimport \"@openzeppelin/contracts/utils/Strings.sol\";\n\n/**\n * @title Shrug ERC-721 Token\n */\ncontract ShrugToken is MinterRole, ERC721 {\n    using Strings for uint256;\n\n    // Base URI\n    string private baseURI;\n\n    /// @notice max supply of token\n    uint256 public constant maxSupply = 500;\n\n    /// @notice total supply of token\n    uint256 public totalSupply;\n\n    /**\n     * @dev Constructor function\n     * @param _name name of the token\n     * @param _symbol symbol of the token\n     * @param baseURI_ base uri of the token\n     */\n    constructor(\n        string memory _name,\n        string memory _symbol,\n        string memory baseURI_\n    ) ERC721(_name, _symbol) {\n        _setBaseURI(baseURI_);\n    }\n\n    /**\n     * @dev Internal Function returns base URI.\n     */\n    function _baseURI() internal view override returns (string memory) {\n        return baseURI;\n    }\n\n    /**\n     * @dev Public Function returns base URI.\n     */\n    function getBaseURI() public view returns (string memory) {\n        return baseURI;\n    }\n\n    /**\n     * @dev Internal function to set the base URI for all token IDs.\n     * @param baseURI_ Base uri of the token\n     */\n    function _setBaseURI(string memory baseURI_) internal virtual {\n        baseURI = baseURI_;\n    }\n\n    /**\n     * @dev Mint token function\n     * @param to Address of owner\n     */\n    function mint(\n        address to\n    ) external onlyMinter {\n        require(\n            totalSupply < maxSupply,\n            \"ShrugToken: All tokens are minted\"\n        );\n        totalSupply += 1;\n        _mint(to, maxSupply + 1 - totalSupply);\n    }\n}",
  "sourcePath": "/Users/lovelytinker/Downloads/nft-shrug-master/contracts/token/ShrugToken.sol",
  "compiler": {
    "name": "solc",
    "version": "0.8.0+commit.c7dfd78e.Emscripten.clang"
  },
  "schemaVersion": "3.4.3",
  "updatedAt": "2021-10-01T05:49:19.308Z",
  "devdoc": {
    "kind": "dev",
    "methods": {
      "approve(address,uint256)": {
        "details": "See {IERC721-approve}."
      },
      "balanceOf(address)": {
        "details": "See {IERC721-balanceOf}."
      },
      "constructor": {
        "details": "Constructor function",
        "params": {
          "_name": "name of the token",
          "_symbol": "symbol of the token",
          "baseURI_": "base uri of the token"
        }
      },
      "getApproved(uint256)": {
        "details": "See {IERC721-getApproved}."
      },
      "getBaseURI()": {
        "details": "Public Function returns base URI."
      },
      "isApprovedForAll(address,address)": {
        "details": "See {IERC721-isApprovedForAll}."
      },
      "mint(address)": {
        "details": "Mint token function",
        "params": {
          "to": "Address of owner"
        }
      },
      "name()": {
        "details": "See {IERC721Metadata-name}."
      },
      "ownerOf(uint256)": {
        "details": "See {IERC721-ownerOf}."
      },
      "safeTransferFrom(address,address,uint256)": {
        "details": "See {IERC721-safeTransferFrom}."
      },
      "safeTransferFrom(address,address,uint256,bytes)": {
        "details": "See {IERC721-safeTransferFrom}."
      },
      "setApprovalForAll(address,bool)": {
        "details": "See {IERC721-setApprovalForAll}."
      },
      "supportsInterface(bytes4)": {
        "details": "See {IERC165-supportsInterface}."
      },
      "symbol()": {
        "details": "See {IERC721Metadata-symbol}."
      },
      "tokenURI(uint256)": {
        "details": "See {IERC721Metadata-tokenURI}."
      },
      "transferFrom(address,address,uint256)": {
        "details": "See {IERC721-transferFrom}."
      }
    },
    "title": "Shrug ERC-721 Token",
    "version": 1
  },
  "userdoc": {
    "kind": "user",
    "methods": {
      "maxSupply()": {
        "notice": "max supply of token"
      },
      "totalSupply()": {
        "notice": "total supply of token"
      }
    },
    "version": 1
  }
}